{
  "_format": "hh-sol-artifact-1",
  "contractName": "Groth16Verifier",
  "sourceName": "contracts/Verifier.sol",
  "abi": [
    {
      "inputs": [
        {
          "internalType": "uint256[2]",
          "name": "_pA",
          "type": "uint256[2]"
        },
        {
          "internalType": "uint256[2][2]",
          "name": "_pB",
          "type": "uint256[2][2]"
        },
        {
          "internalType": "uint256[2]",
          "name": "_pC",
          "type": "uint256[2]"
        },
        {
          "internalType": "uint256[1]",
          "name": "_pubSignals",
          "type": "uint256[1]"
        }
      ],
      "name": "verifyProof",
      "outputs": [
        {
          "internalType": "bool",
          "name": "",
          "type": "bool"
        }
      ],
      "stateMutability": "view",
      "type": "function"
    }
  ],
  "bytecode": "0x6080604052348015600f57600080fd5b506106018061001f6000396000f3fe608060405234801561001057600080fd5b506004361061002b5760003560e01c806343753b4d14610030575b600080fd5b61004a6004803603810190610045919061052c565b610060565b60405161005791906105b0565b60405180910390f35b600061048d565b7f30644e72e131a029b85045b68181585d2833e84879b9709143e1f593f00000018110610098576000805260206000f35b50565b600060405183815284602082015285604082015260408160608360076107d05a03fa9150816100ce576000805260206000f35b825160408201526020830151606082015260408360808360066107d05a03fa9150816100fe576000805260206000f35b505050505050565b600060808601600087017f12691498df083775b482e580f3208b557d5b537af831533ec074d13b9c875aec81527f0be8dab5bec6145457d21f09b8a08ddc43ab0a02e8239274fde981f568603bbb60208201526101a960008801357f1352830ee5b8933ff17daaefbea0513e4a23692fa551db0d570a682e1a8d3cb77f2441786ae33992fc20bce2197e7b90c01367a0b6d3811f03abd2fdcb574070328461009b565b833582527f30644e72e131a029b85045b68181585d97816a916871ca8d3c208c16d87cfd4760208501357f30644e72e131a029b85045b68181585d97816a916871ca8d3c208c16d87cfd4703066020830152843560408301526020850135606083015260408501356080830152606085013560a08301527f22a0fe49d71eb3b0022336636ce3cb86505761be03dbd2125b286a169fbc3e7060c08301527f2b7da03dde403d1439f702a49da69af769eda44492f1a8b9b20352117f3e8b7860e08301527f1dc941028b967a3f095f81984991edacaba7b3954433bed49949ec1d678bd59a6101008301527f2da809644f1486766a3ec4f36ae97ab30f7d42a1f9d6034627f51ed4e3afed616101208301527f13b0e8c6172e8a39734aaca8dc612a1a77adb126eaf43e11e51f0b522f1ecdcc6101408301527f08191459ccd96c6fb7bd1530a0d92c4349cc77cca59cae4cf02090000cecd022610160830152600088015161018083015260206000018801516101a08301527f198e9393920d483a7260bfb731fb5d25f1aa493335a9e71297e485b7aef312c26101c08301527f1800deef121f1e76426a00665e5c4479674322d4f75edadd46debd5cd992f6ed6101e08301527f090689d0585ff075ec9e99ad690c3395bc4b313370b38ef355acdadcd122975b6102008301527f12c85ea5db8c6deb4aab71808dcb408fe3d1e7690c43d37b4ce6cc0166fa7daa610220830152853561024083015260208601356102608301527f08ce3970fbca3c00975b92630865bf7a6356c9700ae7fc72d170ac4594ffb18b6102808301527f1fad27e7745bc0d7f4a305470881e7ed8f26a2bc7e35e4ba5c29a79b07300c996102a08301527f1411a33a1ad10a9307bd605a30a020e490d93b405495d5ebc46793959c8869c46102c08301527f2ade3b36a52cc4aac0ee94baab9e3800263e4c275d58a2c4bbc391eb2889bfc86102e08301526020826103008460086107d05a03fa82518116935050505095945050505050565b60405161038081016040526104a56000840135610067565b6104b2818486888a610106565b8060005260206000f35b600080fd5b600080fd5b6000819050826020600202820111156104e2576104e16104c1565b5b92915050565b600081905082604060020282011115610504576105036104c1565b5b92915050565b600081905082602060010282011115610526576105256104c1565b5b92915050565b6000806000806101208587031215610547576105466104bc565b5b6000610555878288016104c6565b9450506040610566878288016104e8565b93505060c0610577878288016104c6565b9250506101006105898782880161050a565b91505092959194509250565b60008115159050919050565b6105aa81610595565b82525050565b60006020820190506105c560008301846105a1565b9291505056fea2646970667358221220a5a8e87e411baffddeb91c277c9bdd1fb6e64d27a026f055d6d1363e232080f564736f6c634300081c0033",
  "linkReferences": {},
  "deployedLinkReferences": {}
}