{
  "_format": "hh-sol-artifact-1",
  "contractName": "HealthRecordNFT",
  "sourceName": "contracts/HealthRecordNFT.sol",
  "abi": [
    {
      "inputs": [],
      "name": "AccessControlBadConfirmation",
      "type": "error"
    },
    {
      "inputs": [
        {
          "internalType": "address",
          "name": "account",
          "type": "address"
        },
        {
          "internalType": "bytes32",
          "name": "neededRole",
          "type": "bytes32"
        }
      ],
      "name": "AccessControlUnauthorizedAccount",
      "type": "error"
    },
    {
      "inputs": [
        {
          "internalType": "address",
          "name": "target",
          "type": "address"
        }
      ],
      "name": "AddressEmptyCode",
      "type": "error"
    },
    {
      "inputs": [
        {
          "internalType": "address",
          "name": "implementation",
          "type": "address"
        }
      ],
      "name": "ERC1967InvalidImplementation",
      "type": "error"
    },
    {
      "inputs": [],
      "name": "ERC1967NonPayable",
      "type": "error"
    },
    {
      "inputs": [
        {
          "internalType": "address",
          "name": "sender",
          "type": "address"
        },
        {
          "internalType": "uint256",
          "name": "tokenId",
          "type": "uint256"
        },
        {
          "internalType": "address",
          "name": "owner",
          "type": "address"
        }
      ],
      "name": "ERC721IncorrectOwner",
      "type": "error"
    },
    {
      "inputs": [
        {
          "internalType": "address",
          "name": "operator",
          "type": "address"
        },
        {
          "internalType": "uint256",
          "name": "tokenId",
          "type": "uint256"
        }
      ],
      "name": "ERC721InsufficientApproval",
      "type": "error"
    },
    {
      "inputs": [
        {
          "internalType": "address",
          "name": "approver",
          "type": "address"
        }
      ],
      "name": "ERC721InvalidApprover",
      "type": "error"
    },
    {
      "inputs": [
        {
          "internalType": "address",
          "name": "operator",
          "type": "address"
        }
      ],
      "name": "ERC721InvalidOperator",
      "type": "error"
    },
    {
      "inputs": [
        {
          "internalType": "address",
          "name": "owner",
          "type": "address"
        }
      ],
      "name": "ERC721InvalidOwner",
      "type": "error"
    },
    {
      "inputs": [
        {
          "internalType": "address",
          "name": "receiver",
          "type": "address"
        }
      ],
      "name": "ERC721InvalidReceiver",
      "type": "error"
    },
    {
      "inputs": [
        {
          "internalType": "address",
          "name": "sender",
          "type": "address"
        }
      ],
      "name": "ERC721InvalidSender",
      "type": "error"
    },
    {
      "inputs": [
        {
          "internalType": "uint256",
          "name": "tokenId",
          "type": "uint256"
        }
      ],
      "name": "ERC721NonexistentToken",
      "type": "error"
    },
    {
      "inputs": [],
      "name": "FailedCall",
      "type": "error"
    },
    {
      "inputs": [],
      "name": "InvalidInitialization",
      "type": "error"
    },
    {
      "inputs": [],
      "name": "NotInitializing",
      "type": "error"
    },
    {
      "inputs": [],
      "name": "UUPSUnauthorizedCallContext",
      "type": "error"
    },
    {
      "inputs": [
        {
          "internalType": "bytes32",
          "name": "slot",
          "type": "bytes32"
        }
      ],
      "name": "UUPSUnsupportedProxiableUUID",
      "type": "error"
    },
    {
      "anonymous": false,
      "inputs": [
        {
          "indexed": true,
          "internalType": "uint256",
          "name": "tokenId",
          "type": "uint256"
        },
        {
          "indexed": true,
          "internalType": "address",
          "name": "grantee",
          "type": "address"
        }
      ],
      "name": "AccessGranted",
      "type": "event"
    },
    {
      "anonymous": false,
      "inputs": [
        {
          "indexed": true,
          "internalType": "uint256",
          "name": "tokenId",
          "type": "uint256"
        },
        {
          "indexed": true,
          "internalType": "address",
          "name": "grantee",
          "type": "address"
        }
      ],
      "name": "AccessRevoked",
      "type": "event"
    },
    {
      "anonymous": false,
      "inputs": [
        {
          "indexed": true,
          "internalType": "address",
          "name": "owner",
          "type": "address"
        },
        {
          "indexed": true,
          "internalType": "address",
          "name": "approved",
          "type": "address"
        },
        {
          "indexed": true,
          "internalType": "uint256",
          "name": "tokenId",
          "type": "uint256"
        }
      ],
      "name": "Approval",
      "type": "event"
    },
    {
      "anonymous": false,
      "inputs": [
        {
          "indexed": true,
          "internalType": "address",
          "name": "owner",
          "type": "address"
        },
        {
          "indexed": true,
          "internalType": "address",
          "name": "operator",
          "type": "address"
        },
        {
          "indexed": false,
          "internalType": "bool",
          "name": "approved",
          "type": "bool"
        }
      ],
      "name": "ApprovalForAll",
      "type": "event"
    },
    {
      "anonymous": false,
      "inputs": [
        {
          "indexed": false,
          "internalType": "uint64",
          "name": "version",
          "type": "uint64"
        }
      ],
      "name": "Initialized",
      "type": "event"
    },
    {
      "anonymous": false,
      "inputs": [
        {
          "indexed": true,
          "internalType": "uint256",
          "name": "tokenId",
          "type": "uint256"
        },
        {
          "indexed": true,
          "internalType": "address",
          "name": "owner",
          "type": "address"
        },
        {
          "indexed": false,
          "internalType": "string",
          "name": "metadataCID",
          "type": "string"
        },
        {
          "indexed": false,
          "internalType": "string",
          "name": "patientId",
          "type": "string"
        }
      ],
      "name": "MintedRecord",
      "type": "event"
    },
    {
      "anonymous": false,
      "inputs": [
        {
          "indexed": true,
          "internalType": "bytes32",
          "name": "role",
          "type": "bytes32"
        },
        {
          "indexed": true,
          "internalType": "bytes32",
          "name": "previousAdminRole",
          "type": "bytes32"
        },
        {
          "indexed": true,
          "internalType": "bytes32",
          "name": "newAdminRole",
          "type": "bytes32"
        }
      ],
      "name": "RoleAdminChanged",
      "type": "event"
    },
    {
      "anonymous": false,
      "inputs": [
        {
          "indexed": true,
          "internalType": "bytes32",
          "name": "role",
          "type": "bytes32"
        },
        {
          "indexed": true,
          "internalType": "address",
          "name": "account",
          "type": "address"
        },
        {
          "indexed": true,
          "internalType": "address",
          "name": "sender",
          "type": "address"
        }
      ],
      "name": "RoleGranted",
      "type": "event"
    },
    {
      "anonymous": false,
      "inputs": [
        {
          "indexed": true,
          "internalType": "bytes32",
          "name": "role",
          "type": "bytes32"
        },
        {
          "indexed": true,
          "internalType": "address",
          "name": "account",
          "type": "address"
        },
        {
          "indexed": true,
          "internalType": "address",
          "name": "sender",
          "type": "address"
        }
      ],
      "name": "RoleRevoked",
      "type": "event"
    },
    {
      "anonymous": false,
      "inputs": [
        {
          "indexed": true,
          "internalType": "address",
          "name": "from",
          "type": "address"
        },
        {
          "indexed": true,
          "internalType": "address",
          "name": "to",
          "type": "address"
        },
        {
          "indexed": true,
          "internalType": "uint256",
          "name": "tokenId",
          "type": "uint256"
        }
      ],
      "name": "Transfer",
      "type": "event"
    },
    {
      "anonymous": false,
      "inputs": [
        {
          "indexed": true,
          "internalType": "address",
          "name": "implementation",
          "type": "address"
        }
      ],
      "name": "Upgraded",
      "type": "event"
    },
    {
      "inputs": [],
      "name": "DEFAULT_ADMIN_ROLE",
      "outputs": [
        {
          "internalType": "bytes32",
          "name": "",
          "type": "bytes32"
        }
      ],
      "stateMutability": "view",
      "type": "function"
    },
    {
      "inputs": [],
      "name": "ORACLE_ROLE",
      "outputs": [
        {
          "internalType": "bytes32",
          "name": "",
          "type": "bytes32"
        }
      ],
      "stateMutability": "view",
      "type": "function"
    },
    {
      "inputs": [],
      "name": "UPGRADER_ROLE",
      "outputs": [
        {
          "internalType": "bytes32",
          "name": "",
          "type": "bytes32"
        }
      ],
      "stateMutability": "view",
      "type": "function"
    },
    {
      "inputs": [],
      "name": "UPGRADE_INTERFACE_VERSION",
      "outputs": [
        {
          "internalType": "string",
          "name": "",
          "type": "string"
        }
      ],
      "stateMutability": "view",
      "type": "function"
    },
    {
      "inputs": [
        {
          "internalType": "uint256",
          "name": "tokenId",
          "type": "uint256"
        },
        {
          "internalType": "uint256[2]",
          "name": "a",
          "type": "uint256[2]"
        },
        {
          "internalType": "uint256[2][2]",
          "name": "b",
          "type": "uint256[2][2]"
        },
        {
          "internalType": "uint256[2]",
          "name": "c",
          "type": "uint256[2]"
        },
        {
          "internalType": "uint256[1]",
          "name": "publicInputs",
          "type": "uint256[1]"
        }
      ],
      "name": "accessWithProof",
      "outputs": [],
      "stateMutability": "nonpayable",
      "type": "function"
    },
    {
      "inputs": [
        {
          "internalType": "address",
          "name": "to",
          "type": "address"
        },
        {
          "internalType": "uint256",
          "name": "tokenId",
          "type": "uint256"
        }
      ],
      "name": "approve",
      "outputs": [],
      "stateMutability": "nonpayable",
      "type": "function"
    },
    {
      "inputs": [
        {
          "internalType": "address",
          "name": "owner",
          "type": "address"
        }
      ],
      "name": "balanceOf",
      "outputs": [
        {
          "internalType": "uint256",
          "name": "",
          "type": "uint256"
        }
      ],
      "stateMutability": "view",
      "type": "function"
    },
    {
      "inputs": [
        {
          "internalType": "address",
          "name": "owner",
          "type": "address"
        }
      ],
      "name": "getAllMetadataCID",
      "outputs": [
        {
          "internalType": "string[]",
          "name": "",
          "type": "string[]"
        }
      ],
      "stateMutability": "view",
      "type": "function"
    },
    {
      "inputs": [
        {
          "internalType": "uint256",
          "name": "tokenId",
          "type": "uint256"
        }
      ],
      "name": "getApproved",
      "outputs": [
        {
          "internalType": "address",
          "name": "",
          "type": "address"
        }
      ],
      "stateMutability": "view",
      "type": "function"
    },
    {
      "inputs": [
        {
          "internalType": "bytes32",
          "name": "role",
          "type": "bytes32"
        }
      ],
      "name": "getRoleAdmin",
      "outputs": [
        {
          "internalType": "bytes32",
          "name": "",
          "type": "bytes32"
        }
      ],
      "stateMutability": "view",
      "type": "function"
    },
    {
      "inputs": [
        {
          "internalType": "string",
          "name": "cid",
          "type": "string"
        }
      ],
      "name": "getTokenIdByCID",
      "outputs": [
        {
          "internalType": "uint256",
          "name": "",
          "type": "uint256"
        }
      ],
      "stateMutability": "view",
      "type": "function"
    },
    {
      "inputs": [
        {
          "internalType": "uint256",
          "name": "tokenId",
          "type": "uint256"
        },
        {
          "internalType": "address",
          "name": "grantee",
          "type": "address"
        }
      ],
      "name": "grantAccess",
      "outputs": [],
      "stateMutability": "nonpayable",
      "type": "function"
    },
    {
      "inputs": [
        {
          "internalType": "bytes32",
          "name": "role",
          "type": "bytes32"
        },
        {
          "internalType": "address",
          "name": "account",
          "type": "address"
        }
      ],
      "name": "grantRole",
      "outputs": [],
      "stateMutability": "nonpayable",
      "type": "function"
    },
    {
      "inputs": [
        {
          "internalType": "bytes32",
          "name": "role",
          "type": "bytes32"
        },
        {
          "internalType": "address",
          "name": "account",
          "type": "address"
        }
      ],
      "name": "hasRole",
      "outputs": [
        {
          "internalType": "bool",
          "name": "",
          "type": "bool"
        }
      ],
      "stateMutability": "view",
      "type": "function"
    },
    {
      "inputs": [
        {
          "internalType": "address",
          "name": "admin",
          "type": "address"
        },
        {
          "internalType": "address",
          "name": "verifierAddress",
          "type": "address"
        }
      ],
      "name": "initialize",
      "outputs": [],
      "stateMutability": "nonpayable",
      "type": "function"
    },
    {
      "inputs": [
        {
          "internalType": "address",
          "name": "owner",
          "type": "address"
        },
        {
          "internalType": "address",
          "name": "operator",
          "type": "address"
        }
      ],
      "name": "isApprovedForAll",
      "outputs": [
        {
          "internalType": "bool",
          "name": "",
          "type": "bool"
        }
      ],
      "stateMutability": "view",
      "type": "function"
    },
    {
      "inputs": [
        {
          "internalType": "address",
          "name": "to",
          "type": "address"
        },
        {
          "internalType": "string",
          "name": "metadataCID",
          "type": "string"
        },
        {
          "internalType": "string",
          "name": "patientId",
          "type": "string"
        }
      ],
      "name": "mintRecord",
      "outputs": [
        {
          "internalType": "uint256",
          "name": "",
          "type": "uint256"
        }
      ],
      "stateMutability": "nonpayable",
      "type": "function"
    },
    {
      "inputs": [],
      "name": "name",
      "outputs": [
        {
          "internalType": "string",
          "name": "",
          "type": "string"
        }
      ],
      "stateMutability": "view",
      "type": "function"
    },
    {
      "inputs": [
        {
          "internalType": "uint256",
          "name": "tokenId",
          "type": "uint256"
        }
      ],
      "name": "ownerOf",
      "outputs": [
        {
          "internalType": "address",
          "name": "",
          "type": "address"
        }
      ],
      "stateMutability": "view",
      "type": "function"
    },
    {
      "inputs": [],
      "name": "proxiableUUID",
      "outputs": [
        {
          "internalType": "bytes32",
          "name": "",
          "type": "bytes32"
        }
      ],
      "stateMutability": "view",
      "type": "function"
    },
    {
      "inputs": [
        {
          "internalType": "bytes32",
          "name": "role",
          "type": "bytes32"
        },
        {
          "internalType": "address",
          "name": "callerConfirmation",
          "type": "address"
        }
      ],
      "name": "renounceRole",
      "outputs": [],
      "stateMutability": "nonpayable",
      "type": "function"
    },
    {
      "inputs": [
        {
          "internalType": "uint256",
          "name": "tokenId",
          "type": "uint256"
        },
        {
          "internalType": "address",
          "name": "grantee",
          "type": "address"
        }
      ],
      "name": "revokeAccess",
      "outputs": [],
      "stateMutability": "nonpayable",
      "type": "function"
    },
    {
      "inputs": [
        {
          "internalType": "bytes32",
          "name": "role",
          "type": "bytes32"
        },
        {
          "internalType": "address",
          "name": "account",
          "type": "address"
        }
      ],
      "name": "revokeRole",
      "outputs": [],
      "stateMutability": "nonpayable",
      "type": "function"
    },
    {
      "inputs": [
        {
          "internalType": "address",
          "name": "from",
          "type": "address"
        },
        {
          "internalType": "address",
          "name": "to",
          "type": "address"
        },
        {
          "internalType": "uint256",
          "name": "tokenId",
          "type": "uint256"
        }
      ],
      "name": "safeTransferFrom",
      "outputs": [],
      "stateMutability": "nonpayable",
      "type": "function"
    },
    {
      "inputs": [
        {
          "internalType": "address",
          "name": "from",
          "type": "address"
        },
        {
          "internalType": "address",
          "name": "to",
          "type": "address"
        },
        {
          "internalType": "uint256",
          "name": "tokenId",
          "type": "uint256"
        },
        {
          "internalType": "bytes",
          "name": "data",
          "type": "bytes"
        }
      ],
      "name": "safeTransferFrom",
      "outputs": [],
      "stateMutability": "nonpayable",
      "type": "function"
    },
    {
      "inputs": [
        {
          "internalType": "address",
          "name": "operator",
          "type": "address"
        },
        {
          "internalType": "bool",
          "name": "approved",
          "type": "bool"
        }
      ],
      "name": "setApprovalForAll",
      "outputs": [],
      "stateMutability": "nonpayable",
      "type": "function"
    },
    {
      "inputs": [
        {
          "internalType": "bytes4",
          "name": "interfaceId",
          "type": "bytes4"
        }
      ],
      "name": "supportsInterface",
      "outputs": [
        {
          "internalType": "bool",
          "name": "",
          "type": "bool"
        }
      ],
      "stateMutability": "view",
      "type": "function"
    },
    {
      "inputs": [],
      "name": "symbol",
      "outputs": [
        {
          "internalType": "string",
          "name": "",
          "type": "string"
        }
      ],
      "stateMutability": "view",
      "type": "function"
    },
    {
      "inputs": [
        {
          "internalType": "uint256",
          "name": "tokenId",
          "type": "uint256"
        }
      ],
      "name": "tokenMetadataCID",
      "outputs": [
        {
          "internalType": "string",
          "name": "",
          "type": "string"
        }
      ],
      "stateMutability": "view",
      "type": "function"
    },
    {
      "inputs": [
        {
          "internalType": "uint256",
          "name": "tokenId",
          "type": "uint256"
        }
      ],
      "name": "tokenURI",
      "outputs": [
        {
          "internalType": "string",
          "name": "",
          "type": "string"
        }
      ],
      "stateMutability": "view",
      "type": "function"
    },
    {
      "inputs": [
        {
          "internalType": "address",
          "name": "owner",
          "type": "address"
        }
      ],
      "name": "tokensOfOwner",
      "outputs": [
        {
          "internalType": "uint256[]",
          "name": "",
          "type": "uint256[]"
        }
      ],
      "stateMutability": "view",
      "type": "function"
    },
    {
      "inputs": [
        {
          "internalType": "address",
          "name": "from",
          "type": "address"
        },
        {
          "internalType": "address",
          "name": "to",
          "type": "address"
        },
        {
          "internalType": "uint256",
          "name": "tokenId",
          "type": "uint256"
        }
      ],
      "name": "transferFrom",
      "outputs": [],
      "stateMutability": "nonpayable",
      "type": "function"
    },
    {
      "inputs": [
        {
          "internalType": "address",
          "name": "newImplementation",
          "type": "address"
        },
        {
          "internalType": "bytes",
          "name": "data",
          "type": "bytes"
        }
      ],
      "name": "upgradeToAndCall",
      "outputs": [],
      "stateMutability": "payable",
      "type": "function"
    },
    {
      "inputs": [],
      "name": "verifier",
      "outputs": [
        {
          "internalType": "contract Groth16Verifier",
          "name": "",
          "type": "address"
        }
      ],
      "stateMutability": "view",
      "type": "function"
    }
  ],
  "bytecode": "0x60a06040523073ffffffffffffffffffffffffffffffffffffffff1660809073ffffffffffffffffffffffffffffffffffffffff16815250348015604257600080fd5b50608051614cba61006c600039600081816123060152818161235b01526125390152614cba6000f3fe6080604052600436106101f95760003560e01c806365dd152c1161010d578063a22cb465116100a0578063c87b56dd1161006f578063c87b56dd14610780578063d547741f146107bd578063d9a5ec1b146107e6578063e985e9c51461080f578063f72c0d8b1461084c576101f9565b8063a22cb465146106c6578063ad3cb1cc146106ef578063b88d4fde1461071a578063c673cce714610743576101f9565b80638462151c116100dc5780638462151c146105f657806391d148541461063357806395d89b4114610670578063a217fddf1461069b576101f9565b806365dd152c14610516578063682c9a591461053f57806370a082311461057c57806378fa0b8e146105b9576101f9565b8063248a9ca31161019057806342842e0e1161015f57806342842e0e14610440578063485cc955146104695780634f1ef2861461049257806352d1902d146104ae5780636352211e146104d9576101f9565b8063248a9ca3146103865780632b7ac3f3146103c35780632f2ff15d146103ee57806336568abe14610417576101f9565b8063095ea7b3116101cc578063095ea7b3146102ce5780632090ab2c146102f7578063210563681461032057806323b872dd1461035d576101f9565b806301ffc9a7146101fe57806306fdde031461023b57806307e2cea514610266578063081812fc14610291575b600080fd5b34801561020a57600080fd5b506102256004803603810190610220919061360a565b610877565b6040516102329190613652565b60405180910390f35b34801561024757600080fd5b50610250610889565b60405161025d91906136fd565b60405180910390f35b34801561027257600080fd5b5061027b61092a565b6040516102889190613738565b60405180910390f35b34801561029d57600080fd5b506102b860048036038101906102b39190613789565b61094e565b6040516102c591906137f7565b60405180910390f35b3480156102da57600080fd5b506102f560048036038101906102f0919061383e565b61096a565b005b34801561030357600080fd5b5061031e600480360381019061031991906138e9565b610980565b005b34801561032c57600080fd5b5061034760048036038101906103429190613789565b610b64565b60405161035491906136fd565b60405180910390f35b34801561036957600080fd5b50610384600480360381019061037f9190613966565b610c1c565b005b34801561039257600080fd5b506103ad60048036038101906103a891906139e5565b610d1e565b6040516103ba9190613738565b60405180910390f35b3480156103cf57600080fd5b506103d8610d4c565b6040516103e59190613a71565b60405180910390f35b3480156103fa57600080fd5b5061041560048036038101906104109190613a8c565b610d70565b005b34801561042357600080fd5b5061043e60048036038101906104399190613a8c565b610d92565b005b34801561044c57600080fd5b5061046760048036038101906104629190613966565b610e0d565b005b34801561047557600080fd5b50610490600480360381019061048b9190613acc565b610e2d565b005b6104ac60048036038101906104a79190613c41565b6110b1565b005b3480156104ba57600080fd5b506104c36110d0565b6040516104d09190613738565b60405180910390f35b3480156104e557600080fd5b5061050060048036038101906104fb9190613789565b611103565b60405161050d91906137f7565b60405180910390f35b34801561052257600080fd5b5061053d60048036038101906105389190613c9d565b611115565b005b34801561054b57600080fd5b5061056660048036038101906105619190613d38565b61123c565b6040516105739190613d94565b60405180910390f35b34801561058857600080fd5b506105a3600480360381019061059e9190613daf565b6112af565b6040516105b09190613d94565b60405180910390f35b3480156105c557600080fd5b506105e060048036038101906105db9190613daf565b611378565b6040516105ed9190613ee8565b60405180910390f35b34801561060257600080fd5b5061061d60048036038101906106189190613daf565b611581565b60405161062a9190613fc8565b60405180910390f35b34801561063f57600080fd5b5061065a60048036038101906106559190613a8c565b611688565b6040516106679190613652565b60405180910390f35b34801561067c57600080fd5b50610685611701565b60405161069291906136fd565b60405180910390f35b3480156106a757600080fd5b506106b06117a2565b6040516106bd9190613738565b60405180910390f35b3480156106d257600080fd5b506106ed60048036038101906106e89190614016565b6117a9565b005b3480156106fb57600080fd5b506107046117bf565b60405161071191906136fd565b60405180910390f35b34801561072657600080fd5b50610741600480360381019061073c9190614056565b6117f8565b005b34801561074f57600080fd5b5061076a600480360381019061076591906140d9565b61181d565b6040516107779190613d94565b60405180910390f35b34801561078c57600080fd5b506107a760048036038101906107a29190613789565b6119a6565b6040516107b491906136fd565b60405180910390f35b3480156107c957600080fd5b506107e460048036038101906107df9190613a8c565b611a0f565b005b3480156107f257600080fd5b5061080d60048036038101906108089190613c9d565b611a31565b005b34801561081b57600080fd5b5061083660048036038101906108319190613acc565b611b58565b6040516108439190613652565b60405180910390f35b34801561085857600080fd5b50610861611bfa565b60405161086e9190613738565b60405180910390f35b600061088282611c1e565b9050919050565b60606000610895611c98565b90508060000180546108a69061419d565b80601f01602080910402602001604051908101604052809291908181526020018280546108d29061419d565b801561091f5780601f106108f45761010080835404028352916020019161091f565b820191906000526020600020905b81548152906001019060200180831161090257829003601f168201915b505050505091505090565b7f68e79a7bf1e0bc45d0a330c573bc367f9cf464fd326078812f301165fbda4ef181565b600061095982611cc0565b5061096382611d48565b9050919050565b61097c8282610977611d93565b611d9b565b5050565b61098a8533611dad565b156109ca576040517f08c379a00000000000000000000000000000000000000000000000000000000081526004016109c19061421a565b60405180910390fd5b60008060009054906101000a900473ffffffffffffffffffffffffffffffffffffffff1673ffffffffffffffffffffffffffffffffffffffff166343753b4d868686866040518563ffffffff1660e01b8152600401610a2c9493929190614322565b602060405180830381865afa158015610a49573d6000803e3d6000fd5b505050506040513d601f19601f82011682018060405250810190610a6d919061437e565b905080610aaf576040517f08c379a0000000000000000000000000000000000000000000000000000000008152600401610aa6906143f7565b60405180910390fd5b60016006600088815260200190815260200160002060003373ffffffffffffffffffffffffffffffffffffffff1673ffffffffffffffffffffffffffffffffffffffff16815260200190815260200160002060006101000a81548160ff0219169083151502179055503373ffffffffffffffffffffffffffffffffffffffff16867f3c3a9147a1fc73dd51a32f4d10c43d457e8cb826eb6f35cac6349eb965ba82b460405160405180910390a3505050505050565b6060610b708233611dad565b610b7957600080fd5b600460008381526020019081526020016000208054610b979061419d565b80601f0160208091040260200160405190810160405280929190818152602001828054610bc39061419d565b8015610c105780601f10610be557610100808354040283529160200191610c10565b820191906000526020600020905b815481529060010190602001808311610bf357829003601f168201915b50505050509050919050565b600073ffffffffffffffffffffffffffffffffffffffff168273ffffffffffffffffffffffffffffffffffffffff1603610c8e5760006040517f64a0ae92000000000000000000000000000000000000000000000000000000008152600401610c8591906137f7565b60405180910390fd5b6000610ca28383610c9d611d93565b611e5a565b90508373ffffffffffffffffffffffffffffffffffffffff168173ffffffffffffffffffffffffffffffffffffffff1614610d18578382826040517f64283d7b000000000000000000000000000000000000000000000000000000008152600401610d0f93929190614417565b60405180910390fd5b50505050565b600080610d29612087565b905080600001600084815260200190815260200160002060010154915050919050565b60008054906101000a900473ffffffffffffffffffffffffffffffffffffffff1681565b610d7982610d1e565b610d82816120af565b610d8c83836120c3565b50505050565b610d9a611d93565b73ffffffffffffffffffffffffffffffffffffffff168173ffffffffffffffffffffffffffffffffffffffff1614610dfe576040517f6697b23200000000000000000000000000000000000000000000000000000000815260040160405180910390fd5b610e0882826121c4565b505050565b610e28838383604051806020016040528060008152506117f8565b505050565b6000610e376122c6565b905060008160000160089054906101000a900460ff1615905060008260000160009054906101000a900467ffffffffffffffff1690506000808267ffffffffffffffff16148015610e855750825b9050600060018367ffffffffffffffff16148015610eba575060003073ffffffffffffffffffffffffffffffffffffffff163b145b905081158015610ec8575080155b15610eff576040517ff92ee8a900000000000000000000000000000000000000000000000000000000815260040160405180910390fd5b60018560000160006101000a81548167ffffffffffffffff021916908367ffffffffffffffff1602179055508315610f4f5760018560000160086101000a81548160ff0219169083151502179055505b610fc36040518060400160405280600c81526020017f4865616c74685265636f726400000000000000000000000000000000000000008152506040518060400160405280600481526020017f48524543000000000000000000000000000000000000000000000000000000008152506122da565b610fcb6122f0565b610fd36122fa565b610fe06000801b886120c3565b5061100b7f189ab7a9244df0848122154315af71fe140f3db0fe014031783b0946b8c9d2e3886120c3565b50856000806101000a81548173ffffffffffffffffffffffffffffffffffffffff021916908373ffffffffffffffffffffffffffffffffffffffff16021790555083156110a85760008560000160086101000a81548160ff0219169083151502179055507fc7f505b2f371ae2175ee4913f4499e1f2633a7b5936321eed1cdaeb6115181d2600160405161109f919061449d565b60405180910390a15b50505050505050565b6110b9612304565b6110c2826123ea565b6110cc8282612418565b5050565b60006110da612537565b7f360894a13ba1a3210667c828492db98dca3e2076cc3735a920a3ca505d382bbc60001b905090565b600061110e82611cc0565b9050919050565b3373ffffffffffffffffffffffffffffffffffffffff1661113583611103565b73ffffffffffffffffffffffffffffffffffffffff161461118b576040517f08c379a000000000000000000000000000000000000000000000000000000000815260040161118290614504565b60405180910390fd5b60016006600084815260200190815260200160002060008373ffffffffffffffffffffffffffffffffffffffff1673ffffffffffffffffffffffffffffffffffffffff16815260200190815260200160002060006101000a81548160ff0219169083151502179055508073ffffffffffffffffffffffffffffffffffffffff16827f3c3a9147a1fc73dd51a32f4d10c43d457e8cb826eb6f35cac6349eb965ba82b460405160405180910390a35050565b60008060038484604051611251929190614554565b9081526020016040518091039020549050600081036112a5576040517f08c379a000000000000000000000000000000000000000000000000000000000815260040161129c906145b9565b60405180910390fd5b8091505092915050565b6000806112ba611c98565b9050600073ffffffffffffffffffffffffffffffffffffffff168373ffffffffffffffffffffffffffffffffffffffff160361132e5760006040517f89c62b6400000000000000000000000000000000000000000000000000000000815260040161132591906137f7565b60405180910390fd5b8060030160008473ffffffffffffffffffffffffffffffffffffffff1673ffffffffffffffffffffffffffffffffffffffff16815260200190815260200160002054915050919050565b6060818073ffffffffffffffffffffffffffffffffffffffff163373ffffffffffffffffffffffffffffffffffffffff16146113e9576040517f08c379a00000000000000000000000000000000000000000000000000000000081526004016113e090614504565b60405180910390fd5b6000600260008573ffffffffffffffffffffffffffffffffffffffff1673ffffffffffffffffffffffffffffffffffffffff16815260200190815260200160002090506000818054905067ffffffffffffffff81111561144c5761144b613b16565b5b60405190808252806020026020018201604052801561147f57816020015b606081526020019060019003908161146a5790505b50905060005b828054905081101561157557600460008483815481106114a8576114a76145d9565b5b9060005260206000200154815260200190815260200160002080546114cc9061419d565b80601f01602080910402602001604051908101604052809291908181526020018280546114f89061419d565b80156115455780601f1061151a57610100808354040283529160200191611545565b820191906000526020600020905b81548152906001019060200180831161152857829003601f168201915b505050505082828151811061155d5761155c6145d9565b5b60200260200101819052508080600101915050611485565b50809350505050919050565b6060818073ffffffffffffffffffffffffffffffffffffffff163373ffffffffffffffffffffffffffffffffffffffff16146115f2576040517f08c379a00000000000000000000000000000000000000000000000000000000081526004016115e990614504565b60405180910390fd5b600260008473ffffffffffffffffffffffffffffffffffffffff1673ffffffffffffffffffffffffffffffffffffffff16815260200190815260200160002080548060200260200160405190810160405280929190818152602001828054801561167b57602002820191906000526020600020905b815481526020019060010190808311611667575b5050505050915050919050565b600080611693612087565b905080600001600085815260200190815260200160002060000160008473ffffffffffffffffffffffffffffffffffffffff1673ffffffffffffffffffffffffffffffffffffffff16815260200190815260200160002060009054906101000a900460ff1691505092915050565b6060600061170d611c98565b905080600101805461171e9061419d565b80601f016020809104026020016040519081016040528092919081815260200182805461174a9061419d565b80156117975780601f1061176c57610100808354040283529160200191611797565b820191906000526020600020905b81548152906001019060200180831161177a57829003601f168201915b505050505091505090565b6000801b81565b6117bb6117b4611d93565b83836125be565b5050565b6040518060400160405280600581526020017f352e302e3000000000000000000000000000000000000000000000000000000081525081565b611803848484610c1c565b61181761180e611d93565b8585858561273c565b50505050565b60007f68e79a7bf1e0bc45d0a330c573bc367f9cf464fd326078812f301165fbda4ef1611849816120af565b6001600081548092919061185c90614637565b91905055506000600154905061187288826128ed565b868660046000848152602001908152602001600020918261189492919061482c565b5084846005600084815260200190815260200160002091826118b792919061482c565b50600260008973ffffffffffffffffffffffffffffffffffffffff1673ffffffffffffffffffffffffffffffffffffffff1681526020019081526020016000208190806001815401808255809150506001900390600052602060002001600090919091909150558060038888604051611931929190614554565b9081526020016040518091039020819055508773ffffffffffffffffffffffffffffffffffffffff16817ff6096f9085720441c5114bb8042ba14656bb822ab144fc65f11c21c3ac77af4a898989896040516119909493929190614929565b60405180910390a3809250505095945050505050565b60606119b182611cc0565b5060006119bc61290b565b905060008151116119dc5760405180602001604052806000815250611a07565b806119e684612922565b6040516020016119f7929190614995565b6040516020818303038152906040525b915050919050565b611a1882610d1e565b611a21816120af565b611a2b83836121c4565b50505050565b3373ffffffffffffffffffffffffffffffffffffffff16611a5183611103565b73ffffffffffffffffffffffffffffffffffffffff1614611aa7576040517f08c379a0000000000000000000000000000000000000000000000000000000008152600401611a9e90614504565b60405180910390fd5b60006006600084815260200190815260200160002060008373ffffffffffffffffffffffffffffffffffffffff1673ffffffffffffffffffffffffffffffffffffffff16815260200190815260200160002060006101000a81548160ff0219169083151502179055508073ffffffffffffffffffffffffffffffffffffffff16827f125883b94692baebecad9f111ed97ffa626523bbbadc6b0ef85ee1b56b9e52d560405160405180910390a35050565b600080611b63611c98565b90508060050160008573ffffffffffffffffffffffffffffffffffffffff1673ffffffffffffffffffffffffffffffffffffffff16815260200190815260200160002060008473ffffffffffffffffffffffffffffffffffffffff1673ffffffffffffffffffffffffffffffffffffffff16815260200190815260200160002060009054906101000a900460ff1691505092915050565b7f189ab7a9244df0848122154315af71fe140f3db0fe014031783b0946b8c9d2e381565b60007f7965db0b000000000000000000000000000000000000000000000000000000007bffffffffffffffffffffffffffffffffffffffffffffffffffffffff1916827bffffffffffffffffffffffffffffffffffffffffffffffffffffffff19161480611c915750611c90826129f0565b5b9050919050565b60007f80bb2b638cc20bc4d0a60d66940f3ab4a00c1d7b313497ca82fb0b4ab0079300905090565b600080611ccc83612ad2565b9050600073ffffffffffffffffffffffffffffffffffffffff168173ffffffffffffffffffffffffffffffffffffffff1603611d3f57826040517f7e273289000000000000000000000000000000000000000000000000000000008152600401611d369190613d94565b60405180910390fd5b80915050919050565b600080611d53611c98565b905080600401600084815260200190815260200160002060009054906101000a900473ffffffffffffffffffffffffffffffffffffffff16915050919050565b600033905090565b611da88383836001612b1d565b505050565b60008173ffffffffffffffffffffffffffffffffffffffff16611dcf84611103565b73ffffffffffffffffffffffffffffffffffffffff1603611df35760019050611e54565b6006600084815260200190815260200160002060008373ffffffffffffffffffffffffffffffffffffffff1673ffffffffffffffffffffffffffffffffffffffff16815260200190815260200160002060009054906101000a900460ff1690505b92915050565b600080611e65611c98565b90506000611e7285612ad2565b9050600073ffffffffffffffffffffffffffffffffffffffff168473ffffffffffffffffffffffffffffffffffffffff1614611eb457611eb3818587612cf1565b5b600073ffffffffffffffffffffffffffffffffffffffff168173ffffffffffffffffffffffffffffffffffffffff1614611f4757611ef6600086600080612b1d565b60018260030160008373ffffffffffffffffffffffffffffffffffffffff1673ffffffffffffffffffffffffffffffffffffffff168152602001908152602001600020600082825403925050819055505b600073ffffffffffffffffffffffffffffffffffffffff168673ffffffffffffffffffffffffffffffffffffffff1614611fcc5760018260030160008873ffffffffffffffffffffffffffffffffffffffff1673ffffffffffffffffffffffffffffffffffffffff168152602001908152602001600020600082825401925050819055505b8582600201600087815260200190815260200160002060006101000a81548173ffffffffffffffffffffffffffffffffffffffff021916908373ffffffffffffffffffffffffffffffffffffffff160217905550848673ffffffffffffffffffffffffffffffffffffffff168273ffffffffffffffffffffffffffffffffffffffff167fddf252ad1be2c89b69c2b068fc378daa952ba7f163c4a11628f55a4df523b3ef60405160405180910390a480925050509392505050565b60007f02dd7bc7dec4dceedda775e58dd541e08a116c6c53815c0bd028192f7b626800905090565b6120c0816120bb611d93565b612db5565b50565b6000806120ce612087565b90506120da8484611688565b6121b857600181600001600086815260200190815260200160002060000160008573ffffffffffffffffffffffffffffffffffffffff1673ffffffffffffffffffffffffffffffffffffffff16815260200190815260200160002060006101000a81548160ff021916908315150217905550612154611d93565b73ffffffffffffffffffffffffffffffffffffffff168373ffffffffffffffffffffffffffffffffffffffff16857f2f8788117e7eff1d82e926ec794901d17c78024a50270940304540a733656f0d60405160405180910390a460019150506121be565b60009150505b92915050565b6000806121cf612087565b90506121db8484611688565b156122ba57600081600001600086815260200190815260200160002060000160008573ffffffffffffffffffffffffffffffffffffffff1673ffffffffffffffffffffffffffffffffffffffff16815260200190815260200160002060006101000a81548160ff021916908315150217905550612256611d93565b73ffffffffffffffffffffffffffffffffffffffff168373ffffffffffffffffffffffffffffffffffffffff16857ff6391f5c32d9c69d2a47ea670b442974b53935d1edc7fd64eb21e047a839171b60405160405180910390a460019150506122c0565b60009150505b92915050565b6000806122d1612e06565b90508091505090565b6122e2612e31565b6122ec8282612e71565b5050565b6122f8612e31565b565b612302612e31565b565b7f000000000000000000000000000000000000000000000000000000000000000073ffffffffffffffffffffffffffffffffffffffff163073ffffffffffffffffffffffffffffffffffffffff1614806123b157507f000000000000000000000000000000000000000000000000000000000000000073ffffffffffffffffffffffffffffffffffffffff16612398612eae565b73ffffffffffffffffffffffffffffffffffffffff1614155b156123e8576040517fe07c8dba00000000000000000000000000000000000000000000000000000000815260040160405180910390fd5b565b7f189ab7a9244df0848122154315af71fe140f3db0fe014031783b0946b8c9d2e3612414816120af565b5050565b8173ffffffffffffffffffffffffffffffffffffffff166352d1902d6040518163ffffffff1660e01b8152600401602060405180830381865afa92505050801561248057506040513d601f19601f8201168201806040525081019061247d91906149ce565b60015b6124c157816040517f4c9c8ce30000000000000000000000000000000000000000000000000000000081526004016124b891906137f7565b60405180910390fd5b7f360894a13ba1a3210667c828492db98dca3e2076cc3735a920a3ca505d382bbc60001b811461252857806040517faa1d49a400000000000000000000000000000000000000000000000000000000815260040161251f9190613738565b60405180910390fd5b6125328383612f05565b505050565b7f000000000000000000000000000000000000000000000000000000000000000073ffffffffffffffffffffffffffffffffffffffff163073ffffffffffffffffffffffffffffffffffffffff16146125bc576040517fe07c8dba00000000000000000000000000000000000000000000000000000000815260040160405180910390fd5b565b60006125c8611c98565b9050600073ffffffffffffffffffffffffffffffffffffffff168373ffffffffffffffffffffffffffffffffffffffff160361263b57826040517f5b08ba1800000000000000000000000000000000000000000000000000000000815260040161263291906137f7565b60405180910390fd5b818160050160008673ffffffffffffffffffffffffffffffffffffffff1673ffffffffffffffffffffffffffffffffffffffff16815260200190815260200160002060008573ffffffffffffffffffffffffffffffffffffffff1673ffffffffffffffffffffffffffffffffffffffff16815260200190815260200160002060006101000a81548160ff0219169083151502179055508273ffffffffffffffffffffffffffffffffffffffff168473ffffffffffffffffffffffffffffffffffffffff167f17307eab39ab6107e8899845ad3d59bd9653f200f220920489ca2b5937696c318460405161272e9190613652565b60405180910390a350505050565b60008373ffffffffffffffffffffffffffffffffffffffff163b11156128e6578273ffffffffffffffffffffffffffffffffffffffff1663150b7a02868685856040518563ffffffff1660e01b815260040161279b9493929190614a50565b6020604051808303816000875af19250505080156127d757506040513d601f19601f820116820180604052508101906127d49190614ab1565b60015b61285b573d8060008114612807576040519150601f19603f3d011682016040523d82523d6000602084013e61280c565b606091505b50600081510361285357836040517f64a0ae9200000000000000000000000000000000000000000000000000000000815260040161284a91906137f7565b60405180910390fd5b805160208201fd5b63150b7a0260e01b7bffffffffffffffffffffffffffffffffffffffffffffffffffffffff1916817bffffffffffffffffffffffffffffffffffffffffffffffffffffffff1916146128e457836040517f64a0ae920000000000000000000000000000000000000000000000000000000081526004016128db91906137f7565b60405180910390fd5b505b5050505050565b612907828260405180602001604052806000815250612f78565b5050565b606060405180602001604052806000815250905090565b60606000600161293184612f9c565b01905060008167ffffffffffffffff8111156129505761294f613b16565b5b6040519080825280601f01601f1916602001820160405280156129825781602001600182028036833780820191505090505b509050600082602083010190505b6001156129e5578080600190039150507f3031323334353637383961626364656600000000000000000000000000000000600a86061a8153600a85816129d9576129d8614ade565b5b04945060008503612990575b819350505050919050565b60007f80ac58cd000000000000000000000000000000000000000000000000000000007bffffffffffffffffffffffffffffffffffffffffffffffffffffffff1916827bffffffffffffffffffffffffffffffffffffffffffffffffffffffff19161480612abb57507f5b5e139f000000000000000000000000000000000000000000000000000000007bffffffffffffffffffffffffffffffffffffffffffffffffffffffff1916827bffffffffffffffffffffffffffffffffffffffffffffffffffffffff1916145b80612acb5750612aca826130ef565b5b9050919050565b600080612add611c98565b905080600201600084815260200190815260200160002060009054906101000a900473ffffffffffffffffffffffffffffffffffffffff16915050919050565b6000612b27611c98565b90508180612b625750600073ffffffffffffffffffffffffffffffffffffffff168373ffffffffffffffffffffffffffffffffffffffff1614155b15612c96576000612b7285611cc0565b9050600073ffffffffffffffffffffffffffffffffffffffff168473ffffffffffffffffffffffffffffffffffffffff1614158015612bdd57508373ffffffffffffffffffffffffffffffffffffffff168173ffffffffffffffffffffffffffffffffffffffff1614155b8015612bf05750612bee8185611b58565b155b15612c3257836040517fa9fbf51f000000000000000000000000000000000000000000000000000000008152600401612c2991906137f7565b60405180910390fd5b8215612c9457848673ffffffffffffffffffffffffffffffffffffffff168273ffffffffffffffffffffffffffffffffffffffff167f8c5be1e5ebec7d5bd14f71427d1e84f3dd0314c0f7b2291e5b200ac8c7c3b92560405160405180910390a45b505b8481600401600086815260200190815260200160002060006101000a81548173ffffffffffffffffffffffffffffffffffffffff021916908373ffffffffffffffffffffffffffffffffffffffff1602179055505050505050565b612cfc838383613159565b612db057600073ffffffffffffffffffffffffffffffffffffffff168373ffffffffffffffffffffffffffffffffffffffff1603612d7157806040517f7e273289000000000000000000000000000000000000000000000000000000008152600401612d689190613d94565b60405180910390fd5b81816040517f177e802f000000000000000000000000000000000000000000000000000000008152600401612da7929190614b0d565b60405180910390fd5b505050565b612dbf8282611688565b612e025780826040517fe2517d3f000000000000000000000000000000000000000000000000000000008152600401612df9929190614b36565b60405180910390fd5b5050565b60007ff0c57e16840df040f15088dc2f81fe391c3923bec73e23a9662efc9c229c6a0060001b905090565b612e3961321a565b612e6f576040517fd7e6bcf800000000000000000000000000000000000000000000000000000000815260040160405180910390fd5b565b612e79612e31565b6000612e83611c98565b905082816000019081612e969190614b5f565b5081816001019081612ea89190614b5f565b50505050565b6000612edc7f360894a13ba1a3210667c828492db98dca3e2076cc3735a920a3ca505d382bbc60001b61323a565b60000160009054906101000a900473ffffffffffffffffffffffffffffffffffffffff16905090565b612f0e82613244565b8173ffffffffffffffffffffffffffffffffffffffff167fbc7cd75a20ee27fd9adebab32041f755214dbc6bffa90cc0225b39da2e5c2d3b60405160405180910390a2600081511115612f6b57612f658282613311565b50612f74565b612f73613395565b5b5050565b612f8283836133d2565b612f97612f8d611d93565b600085858561273c565b505050565b600080600090507a184f03e93ff9f4daa797ed6e38ed64bf6a1f0100000000000000008310612ffa577a184f03e93ff9f4daa797ed6e38ed64bf6a1f0100000000000000008381612ff057612fef614ade565b5b0492506040810190505b6d04ee2d6d415b85acef81000000008310613037576d04ee2d6d415b85acef8100000000838161302d5761302c614ade565b5b0492506020810190505b662386f26fc10000831061306657662386f26fc10000838161305c5761305b614ade565b5b0492506010810190505b6305f5e100831061308f576305f5e100838161308557613084614ade565b5b0492506008810190505b61271083106130b45761271083816130aa576130a9614ade565b5b0492506004810190505b606483106130d757606483816130cd576130cc614ade565b5b0492506002810190505b600a83106130e6576001810190505b80915050919050565b60007f01ffc9a7000000000000000000000000000000000000000000000000000000007bffffffffffffffffffffffffffffffffffffffffffffffffffffffff1916827bffffffffffffffffffffffffffffffffffffffffffffffffffffffff1916149050919050565b60008073ffffffffffffffffffffffffffffffffffffffff168373ffffffffffffffffffffffffffffffffffffffff161415801561321157508273ffffffffffffffffffffffffffffffffffffffff168473ffffffffffffffffffffffffffffffffffffffff1614806131d257506131d18484611b58565b5b8061321057508273ffffffffffffffffffffffffffffffffffffffff166131f883611d48565b73ffffffffffffffffffffffffffffffffffffffff16145b5b90509392505050565b60006132246122c6565b60000160089054906101000a900460ff16905090565b6000819050919050565b60008173ffffffffffffffffffffffffffffffffffffffff163b036132a057806040517f4c9c8ce300000000000000000000000000000000000000000000000000000000815260040161329791906137f7565b60405180910390fd5b806132cd7f360894a13ba1a3210667c828492db98dca3e2076cc3735a920a3ca505d382bbc60001b61323a565b60000160006101000a81548173ffffffffffffffffffffffffffffffffffffffff021916908373ffffffffffffffffffffffffffffffffffffffff16021790555050565b60606000808473ffffffffffffffffffffffffffffffffffffffff168460405161333b9190614c6d565b600060405180830381855af49150503d8060008114613376576040519150601f19603f3d011682016040523d82523d6000602084013e61337b565b606091505b509150915061338b8583836134cb565b9250505092915050565b60003411156133d0576040517fb398979f00000000000000000000000000000000000000000000000000000000815260040160405180910390fd5b565b600073ffffffffffffffffffffffffffffffffffffffff168273ffffffffffffffffffffffffffffffffffffffff16036134445760006040517f64a0ae9200000000000000000000000000000000000000000000000000000000815260040161343b91906137f7565b60405180910390fd5b600061345283836000611e5a565b9050600073ffffffffffffffffffffffffffffffffffffffff168173ffffffffffffffffffffffffffffffffffffffff16146134c65760006040517f73c6ac6e0000000000000000000000000000000000000000000000000000000081526004016134bd91906137f7565b60405180910390fd5b505050565b6060826134e0576134db8261355a565b613552565b60008251148015613508575060008473ffffffffffffffffffffffffffffffffffffffff163b145b1561354a57836040517f9996b31500000000000000000000000000000000000000000000000000000000815260040161354191906137f7565b60405180910390fd5b819050613553565b5b9392505050565b60008151111561356c57805160208201fd5b6040517fd6bda27500000000000000000000000000000000000000000000000000000000815260040160405180910390fd5b6000604051905090565b600080fd5b600080fd5b60007fffffffff0000000000000000000000000000000000000000000000000000000082169050919050565b6135e7816135b2565b81146135f257600080fd5b50565b600081359050613604816135de565b92915050565b6000602082840312156136205761361f6135a8565b5b600061362e848285016135f5565b91505092915050565b60008115159050919050565b61364c81613637565b82525050565b60006020820190506136676000830184613643565b92915050565b600081519050919050565b600082825260208201905092915050565b60005b838110156136a757808201518184015260208101905061368c565b60008484015250505050565b6000601f19601f8301169050919050565b60006136cf8261366d565b6136d98185613678565b93506136e9818560208601613689565b6136f2816136b3565b840191505092915050565b6000602082019050818103600083015261371781846136c4565b905092915050565b6000819050919050565b6137328161371f565b82525050565b600060208201905061374d6000830184613729565b92915050565b6000819050919050565b61376681613753565b811461377157600080fd5b50565b6000813590506137838161375d565b92915050565b60006020828403121561379f5761379e6135a8565b5b60006137ad84828501613774565b91505092915050565b600073ffffffffffffffffffffffffffffffffffffffff82169050919050565b60006137e1826137b6565b9050919050565b6137f1816137d6565b82525050565b600060208201905061380c60008301846137e8565b92915050565b61381b816137d6565b811461382657600080fd5b50565b60008135905061383881613812565b92915050565b60008060408385031215613855576138546135a8565b5b600061386385828601613829565b925050602061387485828601613774565b9150509250929050565b600080fd5b60008190508260206002028201111561389f5761389e61387e565b5b92915050565b6000819050826040600202820111156138c1576138c061387e565b5b92915050565b6000819050826020600102820111156138e3576138e261387e565b5b92915050565b60008060008060006101408688031215613906576139056135a8565b5b600061391488828901613774565b955050602061392588828901613883565b9450506060613936888289016138a5565b93505060e061394788828901613883565b925050610120613959888289016138c7565b9150509295509295909350565b60008060006060848603121561397f5761397e6135a8565b5b600061398d86828701613829565b935050602061399e86828701613829565b92505060406139af86828701613774565b9150509250925092565b6139c28161371f565b81146139cd57600080fd5b50565b6000813590506139df816139b9565b92915050565b6000602082840312156139fb576139fa6135a8565b5b6000613a09848285016139d0565b91505092915050565b6000819050919050565b6000613a37613a32613a2d846137b6565b613a12565b6137b6565b9050919050565b6000613a4982613a1c565b9050919050565b6000613a5b82613a3e565b9050919050565b613a6b81613a50565b82525050565b6000602082019050613a866000830184613a62565b92915050565b60008060408385031215613aa357613aa26135a8565b5b6000613ab1858286016139d0565b9250506020613ac285828601613829565b9150509250929050565b60008060408385031215613ae357613ae26135a8565b5b6000613af185828601613829565b9250506020613b0285828601613829565b9150509250929050565b600080fd5b600080fd5b7f4e487b7100000000000000000000000000000000000000000000000000000000600052604160045260246000fd5b613b4e826136b3565b810181811067ffffffffffffffff82111715613b6d57613b6c613b16565b5b80604052505050565b6000613b8061359e565b9050613b8c8282613b45565b919050565b600067ffffffffffffffff821115613bac57613bab613b16565b5b613bb5826136b3565b9050602081019050919050565b82818337600083830152505050565b6000613be4613bdf84613b91565b613b76565b905082815260208101848484011115613c0057613bff613b11565b5b613c0b848285613bc2565b509392505050565b600082601f830112613c2857613c27613b0c565b5b8135613c38848260208601613bd1565b91505092915050565b60008060408385031215613c5857613c576135a8565b5b6000613c6685828601613829565b925050602083013567ffffffffffffffff811115613c8757613c866135ad565b5b613c9385828601613c13565b9150509250929050565b60008060408385031215613cb457613cb36135a8565b5b6000613cc285828601613774565b9250506020613cd385828601613829565b9150509250929050565b600080fd5b60008083601f840112613cf857613cf7613b0c565b5b8235905067ffffffffffffffff811115613d1557613d14613cdd565b5b602083019150836001820283011115613d3157613d3061387e565b5b9250929050565b60008060208385031215613d4f57613d4e6135a8565b5b600083013567ffffffffffffffff811115613d6d57613d6c6135ad565b5b613d7985828601613ce2565b92509250509250929050565b613d8e81613753565b82525050565b6000602082019050613da96000830184613d85565b92915050565b600060208284031215613dc557613dc46135a8565b5b6000613dd384828501613829565b91505092915050565b600081519050919050565b600082825260208201905092915050565b6000819050602082019050919050565b600082825260208201905092915050565b6000613e248261366d565b613e2e8185613e08565b9350613e3e818560208601613689565b613e47816136b3565b840191505092915050565b6000613e5e8383613e19565b905092915050565b6000602082019050919050565b6000613e7e82613ddc565b613e888185613de7565b935083602082028501613e9a85613df8565b8060005b85811015613ed65784840389528151613eb78582613e52565b9450613ec283613e66565b925060208a01995050600181019050613e9e565b50829750879550505050505092915050565b60006020820190508181036000830152613f028184613e73565b905092915050565b600081519050919050565b600082825260208201905092915050565b6000819050602082019050919050565b613f3f81613753565b82525050565b6000613f518383613f36565b60208301905092915050565b6000602082019050919050565b6000613f7582613f0a565b613f7f8185613f15565b9350613f8a83613f26565b8060005b83811015613fbb578151613fa28882613f45565b9750613fad83613f5d565b925050600181019050613f8e565b5085935050505092915050565b60006020820190508181036000830152613fe28184613f6a565b905092915050565b613ff381613637565b8114613ffe57600080fd5b50565b60008135905061401081613fea565b92915050565b6000806040838503121561402d5761402c6135a8565b5b600061403b85828601613829565b925050602061404c85828601614001565b9150509250929050565b600080600080608085870312156140705761406f6135a8565b5b600061407e87828801613829565b945050602061408f87828801613829565b93505060406140a087828801613774565b925050606085013567ffffffffffffffff8111156140c1576140c06135ad565b5b6140cd87828801613c13565b91505092959194509250565b6000806000806000606086880312156140f5576140f46135a8565b5b600061410388828901613829565b955050602086013567ffffffffffffffff811115614124576141236135ad565b5b61413088828901613ce2565b9450945050604086013567ffffffffffffffff811115614153576141526135ad565b5b61415f88828901613ce2565b92509250509295509295909350565b7f4e487b7100000000000000000000000000000000000000000000000000000000600052602260045260246000fd5b600060028204905060018216806141b557607f821691505b6020821081036141c8576141c761416e565b5b50919050565b7f416c726561647920686173206163636573730000000000000000000000000000600082015250565b6000614204601283613678565b915061420f826141ce565b602082019050919050565b60006020820190508181036000830152614233816141f7565b9050919050565b82818337505050565b61424f6040838361423a565b5050565b600060029050919050565b600081905092915050565b6000819050919050565b61427f6040838361423a565b5050565b600061428f8383614273565b60408301905092915050565b600082905092915050565b6000604082019050919050565b6142bc81614253565b6142c6818461425e565b92506142d182614269565b8060005b8381101561430a576142e7828461429b565b6142f18782614283565b96506142fc836142a6565b9250506001810190506142d5565b505050505050565b61431e6020838361423a565b5050565b6000610120820190506143386000830187614243565b61434560408301866142b3565b61435260c0830185614243565b614360610100830184614312565b95945050505050565b60008151905061437881613fea565b92915050565b600060208284031215614394576143936135a8565b5b60006143a284828501614369565b91505092915050565b7f496e76616c69642070726f6f6600000000000000000000000000000000000000600082015250565b60006143e1600d83613678565b91506143ec826143ab565b602082019050919050565b60006020820190508181036000830152614410816143d4565b9050919050565b600060608201905061442c60008301866137e8565b6144396020830185613d85565b61444660408301846137e8565b949350505050565b6000819050919050565b600067ffffffffffffffff82169050919050565b600061448761448261447d8461444e565b613a12565b614458565b9050919050565b6144978161446c565b82525050565b60006020820190506144b2600083018461448e565b92915050565b7f4f6e6c79206f776e657200000000000000000000000000000000000000000000600082015250565b60006144ee600a83613678565b91506144f9826144b8565b602082019050919050565b6000602082019050818103600083015261451d816144e1565b9050919050565b600081905092915050565b600061453b8385614524565b9350614548838584613bc2565b82840190509392505050565b600061456182848661452f565b91508190509392505050565b7f434944206e6f6e2074726f7661746f0000000000000000000000000000000000600082015250565b60006145a3600f83613678565b91506145ae8261456d565b602082019050919050565b600060208201905081810360008301526145d281614596565b9050919050565b7f4e487b7100000000000000000000000000000000000000000000000000000000600052603260045260246000fd5b7f4e487b7100000000000000000000000000000000000000000000000000000000600052601160045260246000fd5b600061464282613753565b91507fffffffffffffffffffffffffffffffffffffffffffffffffffffffffffffffff820361467457614673614608565b5b600182019050919050565b600082905092915050565b60008190508160005260206000209050919050565b60006020601f8301049050919050565b600082821b905092915050565b6000600883026146ec7fffffffffffffffffffffffffffffffffffffffffffffffffffffffffffffffff826146af565b6146f686836146af565b95508019841693508086168417925050509392505050565b600061472961472461471f84613753565b613a12565b613753565b9050919050565b6000819050919050565b6147438361470e565b61475761474f82614730565b8484546146bc565b825550505050565b600090565b61476c61475f565b61477781848461473a565b505050565b5b8181101561479b57614790600082614764565b60018101905061477d565b5050565b601f8211156147e0576147b18161468a565b6147ba8461469f565b810160208510156147c9578190505b6147dd6147d58561469f565b83018261477c565b50505b505050565b600082821c905092915050565b6000614803600019846008026147e5565b1980831691505092915050565b600061481c83836147f2565b9150826002028217905092915050565b614836838361467f565b67ffffffffffffffff81111561484f5761484e613b16565b5b614859825461419d565b61486482828561479f565b6000601f8311600181146148935760008415614881578287013590505b61488b8582614810565b8655506148f3565b601f1984166148a18661468a565b60005b828110156148c9578489013582556001820191506020850194506020810190506148a4565b868310156148e657848901356148e2601f8916826147f2565b8355505b6001600288020188555050505b50505050505050565b60006149088385613678565b9350614915838584613bc2565b61491e836136b3565b840190509392505050565b600060408201905081810360008301526149448186886148fc565b905081810360208301526149598184866148fc565b905095945050505050565b600061496f8261366d565b6149798185614524565b9350614989818560208601613689565b80840191505092915050565b60006149a18285614964565b91506149ad8284614964565b91508190509392505050565b6000815190506149c8816139b9565b92915050565b6000602082840312156149e4576149e36135a8565b5b60006149f2848285016149b9565b91505092915050565b600081519050919050565b600082825260208201905092915050565b6000614a22826149fb565b614a2c8185614a06565b9350614a3c818560208601613689565b614a45816136b3565b840191505092915050565b6000608082019050614a6560008301876137e8565b614a7260208301866137e8565b614a7f6040830185613d85565b8181036060830152614a918184614a17565b905095945050505050565b600081519050614aab816135de565b92915050565b600060208284031215614ac757614ac66135a8565b5b6000614ad584828501614a9c565b91505092915050565b7f4e487b7100000000000000000000000000000000000000000000000000000000600052601260045260246000fd5b6000604082019050614b2260008301856137e8565b614b2f6020830184613d85565b9392505050565b6000604082019050614b4b60008301856137e8565b614b586020830184613729565b9392505050565b614b688261366d565b67ffffffffffffffff811115614b8157614b80613b16565b5b614b8b825461419d565b614b9682828561479f565b600060209050601f831160018114614bc95760008415614bb7578287015190505b614bc18582614810565b865550614c29565b601f198416614bd78661468a565b60005b82811015614bff57848901518255600182019150602085019450602081019050614bda565b86831015614c1c5784890151614c18601f8916826147f2565b8355505b6001600288020188555050505b505050505050565b600081905092915050565b6000614c47826149fb565b614c518185614c31565b9350614c61818560208601613689565b80840191505092915050565b6000614c798284614c3c565b91508190509291505056fea2646970667358221220148be94ee3eeb57a9964f589b18cc4db31b7c4a587550e2128d5ec1f2b6b198a64736f6c634300081c0033",
  "linkReferences": {},
  "deployedLinkReferences": {}
}