{
  "_format": "hh-sol-artifact-1",
  "contractName": "HealthRecordNFT",
  "sourceName": "contracts/HealthRecordNFT.sol",
  "abi": [
    {
      "inputs": [],
      "name": "AccessControlBadConfirmation",
      "type": "error"
    },
    {
      "inputs": [
        {
          "internalType": "address",
          "name": "account",
          "type": "address"
        },
        {
          "internalType": "bytes32",
          "name": "neededRole",
          "type": "bytes32"
        }
      ],
      "name": "AccessControlUnauthorizedAccount",
      "type": "error"
    },
    {
      "inputs": [
        {
          "internalType": "address",
          "name": "target",
          "type": "address"
        }
      ],
      "name": "AddressEmptyCode",
      "type": "error"
    },
    {
      "inputs": [
        {
          "internalType": "address",
          "name": "implementation",
          "type": "address"
        }
      ],
      "name": "ERC1967InvalidImplementation",
      "type": "error"
    },
    {
      "inputs": [],
      "name": "ERC1967NonPayable",
      "type": "error"
    },
    {
      "inputs": [
        {
          "internalType": "address",
          "name": "sender",
          "type": "address"
        },
        {
          "internalType": "uint256",
          "name": "tokenId",
          "type": "uint256"
        },
        {
          "internalType": "address",
          "name": "owner",
          "type": "address"
        }
      ],
      "name": "ERC721IncorrectOwner",
      "type": "error"
    },
    {
      "inputs": [
        {
          "internalType": "address",
          "name": "operator",
          "type": "address"
        },
        {
          "internalType": "uint256",
          "name": "tokenId",
          "type": "uint256"
        }
      ],
      "name": "ERC721InsufficientApproval",
      "type": "error"
    },
    {
      "inputs": [
        {
          "internalType": "address",
          "name": "approver",
          "type": "address"
        }
      ],
      "name": "ERC721InvalidApprover",
      "type": "error"
    },
    {
      "inputs": [
        {
          "internalType": "address",
          "name": "operator",
          "type": "address"
        }
      ],
      "name": "ERC721InvalidOperator",
      "type": "error"
    },
    {
      "inputs": [
        {
          "internalType": "address",
          "name": "owner",
          "type": "address"
        }
      ],
      "name": "ERC721InvalidOwner",
      "type": "error"
    },
    {
      "inputs": [
        {
          "internalType": "address",
          "name": "receiver",
          "type": "address"
        }
      ],
      "name": "ERC721InvalidReceiver",
      "type": "error"
    },
    {
      "inputs": [
        {
          "internalType": "address",
          "name": "sender",
          "type": "address"
        }
      ],
      "name": "ERC721InvalidSender",
      "type": "error"
    },
    {
      "inputs": [
        {
          "internalType": "uint256",
          "name": "tokenId",
          "type": "uint256"
        }
      ],
      "name": "ERC721NonexistentToken",
      "type": "error"
    },
    {
      "inputs": [],
      "name": "FailedCall",
      "type": "error"
    },
    {
      "inputs": [],
      "name": "InvalidInitialization",
      "type": "error"
    },
    {
      "inputs": [],
      "name": "NotInitializing",
      "type": "error"
    },
    {
      "inputs": [],
      "name": "UUPSUnauthorizedCallContext",
      "type": "error"
    },
    {
      "inputs": [
        {
          "internalType": "bytes32",
          "name": "slot",
          "type": "bytes32"
        }
      ],
      "name": "UUPSUnsupportedProxiableUUID",
      "type": "error"
    },
    {
      "anonymous": false,
      "inputs": [
        {
          "indexed": true,
          "internalType": "uint256",
          "name": "tokenId",
          "type": "uint256"
        },
        {
          "indexed": true,
          "internalType": "address",
          "name": "grantee",
          "type": "address"
        }
      ],
      "name": "AccessGranted",
      "type": "event"
    },
    {
      "anonymous": false,
      "inputs": [
        {
          "indexed": true,
          "internalType": "uint256",
          "name": "tokenId",
          "type": "uint256"
        },
        {
          "indexed": true,
          "internalType": "address",
          "name": "grantee",
          "type": "address"
        }
      ],
      "name": "AccessRevoked",
      "type": "event"
    },
    {
      "anonymous": false,
      "inputs": [
        {
          "indexed": true,
          "internalType": "address",
          "name": "patient",
          "type": "address"
        },
        {
          "indexed": true,
          "internalType": "address",
          "name": "doctor",
          "type": "address"
        },
        {
          "indexed": false,
          "internalType": "uint256",
          "name": "requiredYear",
          "type": "uint256"
        }
      ],
      "name": "AgeVerificationRequested",
      "type": "event"
    },
    {
      "anonymous": false,
      "inputs": [
        {
          "indexed": true,
          "internalType": "address",
          "name": "doctor",
          "type": "address"
        },
        {
          "indexed": true,
          "internalType": "address",
          "name": "user",
          "type": "address"
        },
        {
          "indexed": false,
          "internalType": "uint256",
          "name": "requiredYear",
          "type": "uint256"
        },
        {
          "indexed": false,
          "internalType": "uint256",
          "name": "result",
          "type": "uint256"
        }
      ],
      "name": "AgeVerificationResult",
      "type": "event"
    },
    {
      "anonymous": false,
      "inputs": [
        {
          "indexed": true,
          "internalType": "address",
          "name": "owner",
          "type": "address"
        },
        {
          "indexed": true,
          "internalType": "address",
          "name": "approved",
          "type": "address"
        },
        {
          "indexed": true,
          "internalType": "uint256",
          "name": "tokenId",
          "type": "uint256"
        }
      ],
      "name": "Approval",
      "type": "event"
    },
    {
      "anonymous": false,
      "inputs": [
        {
          "indexed": true,
          "internalType": "address",
          "name": "owner",
          "type": "address"
        },
        {
          "indexed": true,
          "internalType": "address",
          "name": "operator",
          "type": "address"
        },
        {
          "indexed": false,
          "internalType": "bool",
          "name": "approved",
          "type": "bool"
        }
      ],
      "name": "ApprovalForAll",
      "type": "event"
    },
    {
      "anonymous": false,
      "inputs": [
        {
          "indexed": false,
          "internalType": "uint64",
          "name": "version",
          "type": "uint64"
        }
      ],
      "name": "Initialized",
      "type": "event"
    },
    {
      "anonymous": false,
      "inputs": [
        {
          "indexed": true,
          "internalType": "uint256",
          "name": "tokenId",
          "type": "uint256"
        },
        {
          "indexed": true,
          "internalType": "address",
          "name": "owner",
          "type": "address"
        },
        {
          "indexed": false,
          "internalType": "string",
          "name": "metadataCID",
          "type": "string"
        },
        {
          "indexed": false,
          "internalType": "string",
          "name": "patientId",
          "type": "string"
        }
      ],
      "name": "MintedRecord",
      "type": "event"
    },
    {
      "anonymous": false,
      "inputs": [
        {
          "indexed": true,
          "internalType": "bytes32",
          "name": "role",
          "type": "bytes32"
        },
        {
          "indexed": true,
          "internalType": "bytes32",
          "name": "previousAdminRole",
          "type": "bytes32"
        },
        {
          "indexed": true,
          "internalType": "bytes32",
          "name": "newAdminRole",
          "type": "bytes32"
        }
      ],
      "name": "RoleAdminChanged",
      "type": "event"
    },
    {
      "anonymous": false,
      "inputs": [
        {
          "indexed": true,
          "internalType": "bytes32",
          "name": "role",
          "type": "bytes32"
        },
        {
          "indexed": true,
          "internalType": "address",
          "name": "account",
          "type": "address"
        },
        {
          "indexed": true,
          "internalType": "address",
          "name": "sender",
          "type": "address"
        }
      ],
      "name": "RoleGranted",
      "type": "event"
    },
    {
      "anonymous": false,
      "inputs": [
        {
          "indexed": true,
          "internalType": "bytes32",
          "name": "role",
          "type": "bytes32"
        },
        {
          "indexed": true,
          "internalType": "address",
          "name": "account",
          "type": "address"
        },
        {
          "indexed": true,
          "internalType": "address",
          "name": "sender",
          "type": "address"
        }
      ],
      "name": "RoleRevoked",
      "type": "event"
    },
    {
      "anonymous": false,
      "inputs": [
        {
          "indexed": true,
          "internalType": "address",
          "name": "from",
          "type": "address"
        },
        {
          "indexed": true,
          "internalType": "address",
          "name": "to",
          "type": "address"
        },
        {
          "indexed": true,
          "internalType": "uint256",
          "name": "tokenId",
          "type": "uint256"
        }
      ],
      "name": "Transfer",
      "type": "event"
    },
    {
      "anonymous": false,
      "inputs": [
        {
          "indexed": true,
          "internalType": "address",
          "name": "implementation",
          "type": "address"
        }
      ],
      "name": "Upgraded",
      "type": "event"
    },
    {
      "inputs": [],
      "name": "DEFAULT_ADMIN_ROLE",
      "outputs": [
        {
          "internalType": "bytes32",
          "name": "",
          "type": "bytes32"
        }
      ],
      "stateMutability": "view",
      "type": "function"
    },
    {
      "inputs": [],
      "name": "ORACLE_ROLE",
      "outputs": [
        {
          "internalType": "bytes32",
          "name": "",
          "type": "bytes32"
        }
      ],
      "stateMutability": "view",
      "type": "function"
    },
    {
      "inputs": [],
      "name": "UPGRADER_ROLE",
      "outputs": [
        {
          "internalType": "bytes32",
          "name": "",
          "type": "bytes32"
        }
      ],
      "stateMutability": "view",
      "type": "function"
    },
    {
      "inputs": [],
      "name": "UPGRADE_INTERFACE_VERSION",
      "outputs": [
        {
          "internalType": "string",
          "name": "",
          "type": "string"
        }
      ],
      "stateMutability": "view",
      "type": "function"
    },
    {
      "inputs": [
        {
          "internalType": "uint256[2]",
          "name": "a",
          "type": "uint256[2]"
        },
        {
          "internalType": "uint256[2][2]",
          "name": "b",
          "type": "uint256[2][2]"
        },
        {
          "internalType": "uint256[2]",
          "name": "c",
          "type": "uint256[2]"
        },
        {
          "internalType": "uint256[1]",
          "name": "publicInputs",
          "type": "uint256[1]"
        },
        {
          "internalType": "address",
          "name": "doctor",
          "type": "address"
        },
        {
          "internalType": "uint256",
          "name": "requiredYear",
          "type": "uint256"
        }
      ],
      "name": "accessWithProof",
      "outputs": [],
      "stateMutability": "nonpayable",
      "type": "function"
    },
    {
      "inputs": [
        {
          "internalType": "address",
          "name": "to",
          "type": "address"
        },
        {
          "internalType": "uint256",
          "name": "tokenId",
          "type": "uint256"
        }
      ],
      "name": "approve",
      "outputs": [],
      "stateMutability": "nonpayable",
      "type": "function"
    },
    {
      "inputs": [
        {
          "internalType": "address",
          "name": "owner",
          "type": "address"
        }
      ],
      "name": "balanceOf",
      "outputs": [
        {
          "internalType": "uint256",
          "name": "",
          "type": "uint256"
        }
      ],
      "stateMutability": "view",
      "type": "function"
    },
    {
      "inputs": [
        {
          "internalType": "address",
          "name": "owner",
          "type": "address"
        }
      ],
      "name": "getAllMetadataCID",
      "outputs": [
        {
          "internalType": "string[]",
          "name": "",
          "type": "string[]"
        }
      ],
      "stateMutability": "view",
      "type": "function"
    },
    {
      "inputs": [
        {
          "internalType": "uint256",
          "name": "tokenId",
          "type": "uint256"
        }
      ],
      "name": "getApproved",
      "outputs": [
        {
          "internalType": "address",
          "name": "",
          "type": "address"
        }
      ],
      "stateMutability": "view",
      "type": "function"
    },
    {
      "inputs": [
        {
          "internalType": "bytes32",
          "name": "role",
          "type": "bytes32"
        }
      ],
      "name": "getRoleAdmin",
      "outputs": [
        {
          "internalType": "bytes32",
          "name": "",
          "type": "bytes32"
        }
      ],
      "stateMutability": "view",
      "type": "function"
    },
    {
      "inputs": [
        {
          "internalType": "string",
          "name": "cid",
          "type": "string"
        }
      ],
      "name": "getTokenIdByCID",
      "outputs": [
        {
          "internalType": "uint256",
          "name": "",
          "type": "uint256"
        }
      ],
      "stateMutability": "view",
      "type": "function"
    },
    {
      "inputs": [
        {
          "internalType": "uint256",
          "name": "tokenId",
          "type": "uint256"
        },
        {
          "internalType": "address",
          "name": "grantee",
          "type": "address"
        }
      ],
      "name": "grantAccess",
      "outputs": [],
      "stateMutability": "nonpayable",
      "type": "function"
    },
    {
      "inputs": [
        {
          "internalType": "bytes32",
          "name": "role",
          "type": "bytes32"
        },
        {
          "internalType": "address",
          "name": "account",
          "type": "address"
        }
      ],
      "name": "grantRole",
      "outputs": [],
      "stateMutability": "nonpayable",
      "type": "function"
    },
    {
      "inputs": [
        {
          "internalType": "bytes32",
          "name": "role",
          "type": "bytes32"
        },
        {
          "internalType": "address",
          "name": "account",
          "type": "address"
        }
      ],
      "name": "hasRole",
      "outputs": [
        {
          "internalType": "bool",
          "name": "",
          "type": "bool"
        }
      ],
      "stateMutability": "view",
      "type": "function"
    },
    {
      "inputs": [
        {
          "internalType": "address",
          "name": "admin",
          "type": "address"
        },
        {
          "internalType": "address",
          "name": "verifierAddress",
          "type": "address"
        }
      ],
      "name": "initialize",
      "outputs": [],
      "stateMutability": "nonpayable",
      "type": "function"
    },
    {
      "inputs": [
        {
          "internalType": "address",
          "name": "owner",
          "type": "address"
        },
        {
          "internalType": "address",
          "name": "operator",
          "type": "address"
        }
      ],
      "name": "isApprovedForAll",
      "outputs": [
        {
          "internalType": "bool",
          "name": "",
          "type": "bool"
        }
      ],
      "stateMutability": "view",
      "type": "function"
    },
    {
      "inputs": [
        {
          "internalType": "address",
          "name": "to",
          "type": "address"
        },
        {
          "internalType": "string",
          "name": "metadataCID",
          "type": "string"
        },
        {
          "internalType": "string",
          "name": "patientId",
          "type": "string"
        }
      ],
      "name": "mintRecord",
      "outputs": [
        {
          "internalType": "uint256",
          "name": "",
          "type": "uint256"
        }
      ],
      "stateMutability": "nonpayable",
      "type": "function"
    },
    {
      "inputs": [],
      "name": "name",
      "outputs": [
        {
          "internalType": "string",
          "name": "",
          "type": "string"
        }
      ],
      "stateMutability": "view",
      "type": "function"
    },
    {
      "inputs": [
        {
          "internalType": "uint256",
          "name": "tokenId",
          "type": "uint256"
        }
      ],
      "name": "ownerOf",
      "outputs": [
        {
          "internalType": "address",
          "name": "",
          "type": "address"
        }
      ],
      "stateMutability": "view",
      "type": "function"
    },
    {
      "inputs": [],
      "name": "proxiableUUID",
      "outputs": [
        {
          "internalType": "bytes32",
          "name": "",
          "type": "bytes32"
        }
      ],
      "stateMutability": "view",
      "type": "function"
    },
    {
      "inputs": [
        {
          "internalType": "bytes32",
          "name": "role",
          "type": "bytes32"
        },
        {
          "internalType": "address",
          "name": "callerConfirmation",
          "type": "address"
        }
      ],
      "name": "renounceRole",
      "outputs": [],
      "stateMutability": "nonpayable",
      "type": "function"
    },
    {
      "inputs": [
        {
          "internalType": "address",
          "name": "patient",
          "type": "address"
        },
        {
          "internalType": "uint256",
          "name": "requiredYear",
          "type": "uint256"
        }
      ],
      "name": "requestAgeVerification",
      "outputs": [],
      "stateMutability": "nonpayable",
      "type": "function"
    },
    {
      "inputs": [
        {
          "internalType": "uint256",
          "name": "tokenId",
          "type": "uint256"
        },
        {
          "internalType": "address",
          "name": "grantee",
          "type": "address"
        }
      ],
      "name": "revokeAccess",
      "outputs": [],
      "stateMutability": "nonpayable",
      "type": "function"
    },
    {
      "inputs": [
        {
          "internalType": "bytes32",
          "name": "role",
          "type": "bytes32"
        },
        {
          "internalType": "address",
          "name": "account",
          "type": "address"
        }
      ],
      "name": "revokeRole",
      "outputs": [],
      "stateMutability": "nonpayable",
      "type": "function"
    },
    {
      "inputs": [
        {
          "internalType": "address",
          "name": "from",
          "type": "address"
        },
        {
          "internalType": "address",
          "name": "to",
          "type": "address"
        },
        {
          "internalType": "uint256",
          "name": "tokenId",
          "type": "uint256"
        }
      ],
      "name": "safeTransferFrom",
      "outputs": [],
      "stateMutability": "nonpayable",
      "type": "function"
    },
    {
      "inputs": [
        {
          "internalType": "address",
          "name": "from",
          "type": "address"
        },
        {
          "internalType": "address",
          "name": "to",
          "type": "address"
        },
        {
          "internalType": "uint256",
          "name": "tokenId",
          "type": "uint256"
        },
        {
          "internalType": "bytes",
          "name": "data",
          "type": "bytes"
        }
      ],
      "name": "safeTransferFrom",
      "outputs": [],
      "stateMutability": "nonpayable",
      "type": "function"
    },
    {
      "inputs": [
        {
          "internalType": "address",
          "name": "operator",
          "type": "address"
        },
        {
          "internalType": "bool",
          "name": "approved",
          "type": "bool"
        }
      ],
      "name": "setApprovalForAll",
      "outputs": [],
      "stateMutability": "nonpayable",
      "type": "function"
    },
    {
      "inputs": [
        {
          "internalType": "bytes4",
          "name": "interfaceId",
          "type": "bytes4"
        }
      ],
      "name": "supportsInterface",
      "outputs": [
        {
          "internalType": "bool",
          "name": "",
          "type": "bool"
        }
      ],
      "stateMutability": "view",
      "type": "function"
    },
    {
      "inputs": [],
      "name": "symbol",
      "outputs": [
        {
          "internalType": "string",
          "name": "",
          "type": "string"
        }
      ],
      "stateMutability": "view",
      "type": "function"
    },
    {
      "inputs": [
        {
          "internalType": "uint256",
          "name": "tokenId",
          "type": "uint256"
        }
      ],
      "name": "tokenMetadataCID",
      "outputs": [
        {
          "internalType": "string",
          "name": "",
          "type": "string"
        }
      ],
      "stateMutability": "view",
      "type": "function"
    },
    {
      "inputs": [
        {
          "internalType": "uint256",
          "name": "tokenId",
          "type": "uint256"
        }
      ],
      "name": "tokenURI",
      "outputs": [
        {
          "internalType": "string",
          "name": "",
          "type": "string"
        }
      ],
      "stateMutability": "view",
      "type": "function"
    },
    {
      "inputs": [
        {
          "internalType": "address",
          "name": "owner",
          "type": "address"
        }
      ],
      "name": "tokensOfOwner",
      "outputs": [
        {
          "internalType": "uint256[]",
          "name": "",
          "type": "uint256[]"
        }
      ],
      "stateMutability": "view",
      "type": "function"
    },
    {
      "inputs": [
        {
          "internalType": "address",
          "name": "from",
          "type": "address"
        },
        {
          "internalType": "address",
          "name": "to",
          "type": "address"
        },
        {
          "internalType": "uint256",
          "name": "tokenId",
          "type": "uint256"
        }
      ],
      "name": "transferFrom",
      "outputs": [],
      "stateMutability": "nonpayable",
      "type": "function"
    },
    {
      "inputs": [
        {
          "internalType": "address",
          "name": "newImplementation",
          "type": "address"
        },
        {
          "internalType": "bytes",
          "name": "data",
          "type": "bytes"
        }
      ],
      "name": "upgradeToAndCall",
      "outputs": [],
      "stateMutability": "payable",
      "type": "function"
    },
    {
      "inputs": [],
      "name": "verifier",
      "outputs": [
        {
          "internalType": "contract Groth16Verifier",
          "name": "",
          "type": "address"
        }
      ],
      "stateMutability": "view",
      "type": "function"
    }
  ],
  "bytecode": "0x60a06040523073ffffffffffffffffffffffffffffffffffffffff1660809073ffffffffffffffffffffffffffffffffffffffff16815250348015604257600080fd5b50608051614cb161006c6000396000818161232c01528181612381015261255f0152614cb16000f3fe6080604052600436106102045760003560e01c80636352211e11610118578063a22cb465116100a0578063c87b56dd1161006f578063c87b56dd146107b4578063d547741f146107f1578063d9a5ec1b1461081a578063e985e9c514610843578063f72c0d8b1461088057610204565b8063a22cb465146106fa578063ad3cb1cc14610723578063b88d4fde1461074e578063c673cce71461077757610204565b806378fa0b8e116100e757806378fa0b8e146105ed5780638462151c1461062a57806391d148541461066757806395d89b41146106a4578063a217fddf146106cf57610204565b80636352211e1461050d57806365dd152c1461054a578063682c9a591461057357806370a08231146105b057610204565b80632b7ac3f31161019b578063485cc9551161016a578063485cc9551461044b5780634f1ef2861461047457806352d1902d14610490578063618382f7146104bb57806362146297146104e457610204565b80632b7ac3f3146103a55780632f2ff15d146103d057806336568abe146103f957806342842e0e1461042257610204565b8063095ea7b3116101d7578063095ea7b3146102d9578063210563681461030257806323b872dd1461033f578063248a9ca31461036857610204565b806301ffc9a71461020957806306fdde031461024657806307e2cea514610271578063081812fc1461029c575b600080fd5b34801561021557600080fd5b50610230600480360381019061022b9190613630565b6108ab565b60405161023d9190613678565b60405180910390f35b34801561025257600080fd5b5061025b6108bd565b6040516102689190613723565b60405180910390f35b34801561027d57600080fd5b5061028661095e565b604051610293919061375e565b60405180910390f35b3480156102a857600080fd5b506102c360048036038101906102be91906137af565b610982565b6040516102d0919061381d565b60405180910390f35b3480156102e557600080fd5b5061030060048036038101906102fb9190613864565b61099e565b005b34801561030e57600080fd5b50610329600480360381019061032491906137af565b6109b4565b6040516103369190613723565b60405180910390f35b34801561034b57600080fd5b50610366600480360381019061036191906138a4565b610a6c565b005b34801561037457600080fd5b5061038f600480360381019061038a9190613923565b610b6e565b60405161039c919061375e565b60405180910390f35b3480156103b157600080fd5b506103ba610b9c565b6040516103c791906139af565b60405180910390f35b3480156103dc57600080fd5b506103f760048036038101906103f291906139ca565b610bc0565b005b34801561040557600080fd5b50610420600480360381019061041b91906139ca565b610be2565b005b34801561042e57600080fd5b50610449600480360381019061044491906138a4565b610c5d565b005b34801561045757600080fd5b50610472600480360381019061046d9190613a0a565b610c7d565b005b61048e60048036038101906104899190613b7f565b610f01565b005b34801561049c57600080fd5b506104a5610f20565b6040516104b2919061375e565b60405180910390f35b3480156104c757600080fd5b506104e260048036038101906104dd9190613c46565b610f53565b005b3480156104f057600080fd5b5061050b60048036038101906105069190613864565b6110c0565b005b34801561051957600080fd5b50610534600480360381019061052f91906137af565b611129565b604051610541919061381d565b60405180910390f35b34801561055657600080fd5b50610571600480360381019061056c9190613cd7565b61113b565b005b34801561057f57600080fd5b5061059a60048036038101906105959190613d72565b611262565b6040516105a79190613dce565b60405180910390f35b3480156105bc57600080fd5b506105d760048036038101906105d29190613de9565b6112d5565b6040516105e49190613dce565b60405180910390f35b3480156105f957600080fd5b50610614600480360381019061060f9190613de9565b61139e565b6040516106219190613f22565b60405180910390f35b34801561063657600080fd5b50610651600480360381019061064c9190613de9565b6115a7565b60405161065e9190614002565b60405180910390f35b34801561067357600080fd5b5061068e600480360381019061068991906139ca565b6116ae565b60405161069b9190613678565b60405180910390f35b3480156106b057600080fd5b506106b9611727565b6040516106c69190613723565b60405180910390f35b3480156106db57600080fd5b506106e46117c8565b6040516106f1919061375e565b60405180910390f35b34801561070657600080fd5b50610721600480360381019061071c9190614050565b6117cf565b005b34801561072f57600080fd5b506107386117e5565b6040516107459190613723565b60405180910390f35b34801561075a57600080fd5b5061077560048036038101906107709190614090565b61181e565b005b34801561078357600080fd5b5061079e60048036038101906107999190614113565b611843565b6040516107ab9190613dce565b60405180910390f35b3480156107c057600080fd5b506107db60048036038101906107d691906137af565b6119cc565b6040516107e89190613723565b60405180910390f35b3480156107fd57600080fd5b50610818600480360381019061081391906139ca565b611a35565b005b34801561082657600080fd5b50610841600480360381019061083c9190613cd7565b611a57565b005b34801561084f57600080fd5b5061086a60048036038101906108659190613a0a565b611b7e565b6040516108779190613678565b60405180910390f35b34801561088c57600080fd5b50610895611c20565b6040516108a2919061375e565b60405180910390f35b60006108b682611c44565b9050919050565b606060006108c9611cbe565b90508060000180546108da906141d7565b80601f0160208091040260200160405190810160405280929190818152602001828054610906906141d7565b80156109535780601f1061092857610100808354040283529160200191610953565b820191906000526020600020905b81548152906001019060200180831161093657829003601f168201915b505050505091505090565b7f68e79a7bf1e0bc45d0a330c573bc367f9cf464fd326078812f301165fbda4ef181565b600061098d82611ce6565b5061099782611d6e565b9050919050565b6109b082826109ab611db9565b611dc1565b5050565b60606109c08233611dd3565b6109c957600080fd5b6004600083815260200190815260200160002080546109e7906141d7565b80601f0160208091040260200160405190810160405280929190818152602001828054610a13906141d7565b8015610a605780601f10610a3557610100808354040283529160200191610a60565b820191906000526020600020905b815481529060010190602001808311610a4357829003601f168201915b50505050509050919050565b600073ffffffffffffffffffffffffffffffffffffffff168273ffffffffffffffffffffffffffffffffffffffff1603610ade5760006040517f64a0ae92000000000000000000000000000000000000000000000000000000008152600401610ad5919061381d565b60405180910390fd5b6000610af28383610aed611db9565b611e80565b90508373ffffffffffffffffffffffffffffffffffffffff168173ffffffffffffffffffffffffffffffffffffffff1614610b68578382826040517f64283d7b000000000000000000000000000000000000000000000000000000008152600401610b5f93929190614208565b60405180910390fd5b50505050565b600080610b796120ad565b905080600001600084815260200190815260200160002060010154915050919050565b60008054906101000a900473ffffffffffffffffffffffffffffffffffffffff1681565b610bc982610b6e565b610bd2816120d5565b610bdc83836120e9565b50505050565b610bea611db9565b73ffffffffffffffffffffffffffffffffffffffff168173ffffffffffffffffffffffffffffffffffffffff1614610c4e576040517f6697b23200000000000000000000000000000000000000000000000000000000815260040160405180910390fd5b610c5882826121ea565b505050565b610c788383836040518060200160405280600081525061181e565b505050565b6000610c876122ec565b905060008160000160089054906101000a900460ff1615905060008260000160009054906101000a900467ffffffffffffffff1690506000808267ffffffffffffffff16148015610cd55750825b9050600060018367ffffffffffffffff16148015610d0a575060003073ffffffffffffffffffffffffffffffffffffffff163b145b905081158015610d18575080155b15610d4f576040517ff92ee8a900000000000000000000000000000000000000000000000000000000815260040160405180910390fd5b60018560000160006101000a81548167ffffffffffffffff021916908367ffffffffffffffff1602179055508315610d9f5760018560000160086101000a81548160ff0219169083151502179055505b610e136040518060400160405280600c81526020017f4865616c74685265636f726400000000000000000000000000000000000000008152506040518060400160405280600481526020017f4852454300000000000000000000000000000000000000000000000000000000815250612300565b610e1b612316565b610e23612320565b610e306000801b886120e9565b50610e5b7f189ab7a9244df0848122154315af71fe140f3db0fe014031783b0946b8c9d2e3886120e9565b50856000806101000a81548173ffffffffffffffffffffffffffffffffffffffff021916908373ffffffffffffffffffffffffffffffffffffffff1602179055508315610ef85760008560000160086101000a81548160ff0219169083151502179055507fc7f505b2f371ae2175ee4913f4499e1f2633a7b5936321eed1cdaeb6115181d26001604051610eef919061428e565b60405180910390a15b50505050505050565b610f0961232a565b610f1282612410565b610f1c828261243e565b5050565b6000610f2a61255d565b7f360894a13ba1a3210667c828492db98dca3e2076cc3735a920a3ca505d382bbc60001b905090565b60008060009054906101000a900473ffffffffffffffffffffffffffffffffffffffff1673ffffffffffffffffffffffffffffffffffffffff166343753b4d888888886040518563ffffffff1660e01b8152600401610fb59493929190614391565b602060405180830381865afa158015610fd2573d6000803e3d6000fd5b505050506040513d601f19601f82011682018060405250810190610ff691906143ed565b905080611038576040517f08c379a000000000000000000000000000000000000000000000000000000000815260040161102f90614466565b60405180910390fd5b3373ffffffffffffffffffffffffffffffffffffffff168373ffffffffffffffffffffffffffffffffffffffff167fb8d4778a408933d9660ed17e8d7ac4a2014079ad07c85e6d548fb1db951a6746848760006001811061109c5761109b614486565b5b60200201356040516110af9291906144b5565b60405180910390a350505050505050565b3373ffffffffffffffffffffffffffffffffffffffff168273ffffffffffffffffffffffffffffffffffffffff167f091156a491718ffa061453218b14c792a6c18f1b3925f856d4183d93b36c6df68360405161111d9190613dce565b60405180910390a35050565b600061113482611ce6565b9050919050565b3373ffffffffffffffffffffffffffffffffffffffff1661115b83611129565b73ffffffffffffffffffffffffffffffffffffffff16146111b1576040517f08c379a00000000000000000000000000000000000000000000000000000000081526004016111a89061452a565b60405180910390fd5b60016006600084815260200190815260200160002060008373ffffffffffffffffffffffffffffffffffffffff1673ffffffffffffffffffffffffffffffffffffffff16815260200190815260200160002060006101000a81548160ff0219169083151502179055508073ffffffffffffffffffffffffffffffffffffffff16827f3c3a9147a1fc73dd51a32f4d10c43d457e8cb826eb6f35cac6349eb965ba82b460405160405180910390a35050565b6000806003848460405161127792919061457a565b9081526020016040518091039020549050600081036112cb576040517f08c379a00000000000000000000000000000000000000000000000000000000081526004016112c2906145df565b60405180910390fd5b8091505092915050565b6000806112e0611cbe565b9050600073ffffffffffffffffffffffffffffffffffffffff168373ffffffffffffffffffffffffffffffffffffffff16036113545760006040517f89c62b6400000000000000000000000000000000000000000000000000000000815260040161134b919061381d565b60405180910390fd5b8060030160008473ffffffffffffffffffffffffffffffffffffffff1673ffffffffffffffffffffffffffffffffffffffff16815260200190815260200160002054915050919050565b6060818073ffffffffffffffffffffffffffffffffffffffff163373ffffffffffffffffffffffffffffffffffffffff161461140f576040517f08c379a00000000000000000000000000000000000000000000000000000000081526004016114069061452a565b60405180910390fd5b6000600260008573ffffffffffffffffffffffffffffffffffffffff1673ffffffffffffffffffffffffffffffffffffffff16815260200190815260200160002090506000818054905067ffffffffffffffff81111561147257611471613a54565b5b6040519080825280602002602001820160405280156114a557816020015b60608152602001906001900390816114905790505b50905060005b828054905081101561159b57600460008483815481106114ce576114cd614486565b5b9060005260206000200154815260200190815260200160002080546114f2906141d7565b80601f016020809104026020016040519081016040528092919081815260200182805461151e906141d7565b801561156b5780601f106115405761010080835404028352916020019161156b565b820191906000526020600020905b81548152906001019060200180831161154e57829003601f168201915b505050505082828151811061158357611582614486565b5b602002602001018190525080806001019150506114ab565b50809350505050919050565b6060818073ffffffffffffffffffffffffffffffffffffffff163373ffffffffffffffffffffffffffffffffffffffff1614611618576040517f08c379a000000000000000000000000000000000000000000000000000000000815260040161160f9061452a565b60405180910390fd5b600260008473ffffffffffffffffffffffffffffffffffffffff1673ffffffffffffffffffffffffffffffffffffffff1681526020019081526020016000208054806020026020016040519081016040528092919081815260200182805480156116a157602002820191906000526020600020905b81548152602001906001019080831161168d575b5050505050915050919050565b6000806116b96120ad565b905080600001600085815260200190815260200160002060000160008473ffffffffffffffffffffffffffffffffffffffff1673ffffffffffffffffffffffffffffffffffffffff16815260200190815260200160002060009054906101000a900460ff1691505092915050565b60606000611733611cbe565b9050806001018054611744906141d7565b80601f0160208091040260200160405190810160405280929190818152602001828054611770906141d7565b80156117bd5780601f10611792576101008083540402835291602001916117bd565b820191906000526020600020905b8154815290600101906020018083116117a057829003601f168201915b505050505091505090565b6000801b81565b6117e16117da611db9565b83836125e4565b5050565b6040518060400160405280600581526020017f352e302e3000000000000000000000000000000000000000000000000000000081525081565b611829848484610a6c565b61183d611834611db9565b85858585612762565b50505050565b60007f68e79a7bf1e0bc45d0a330c573bc367f9cf464fd326078812f301165fbda4ef161186f816120d5565b600160008154809291906118829061462e565b9190505550600060015490506118988882612913565b86866004600084815260200190815260200160002091826118ba929190614823565b5084846005600084815260200190815260200160002091826118dd929190614823565b50600260008973ffffffffffffffffffffffffffffffffffffffff1673ffffffffffffffffffffffffffffffffffffffff168152602001908152602001600020819080600181540180825580915050600190039060005260206000200160009091909190915055806003888860405161195792919061457a565b9081526020016040518091039020819055508773ffffffffffffffffffffffffffffffffffffffff16817ff6096f9085720441c5114bb8042ba14656bb822ab144fc65f11c21c3ac77af4a898989896040516119b69493929190614920565b60405180910390a3809250505095945050505050565b60606119d782611ce6565b5060006119e2612931565b90506000815111611a025760405180602001604052806000815250611a2d565b80611a0c84612948565b604051602001611a1d92919061498c565b6040516020818303038152906040525b915050919050565b611a3e82610b6e565b611a47816120d5565b611a5183836121ea565b50505050565b3373ffffffffffffffffffffffffffffffffffffffff16611a7783611129565b73ffffffffffffffffffffffffffffffffffffffff1614611acd576040517f08c379a0000000000000000000000000000000000000000000000000000000008152600401611ac49061452a565b60405180910390fd5b60006006600084815260200190815260200160002060008373ffffffffffffffffffffffffffffffffffffffff1673ffffffffffffffffffffffffffffffffffffffff16815260200190815260200160002060006101000a81548160ff0219169083151502179055508073ffffffffffffffffffffffffffffffffffffffff16827f125883b94692baebecad9f111ed97ffa626523bbbadc6b0ef85ee1b56b9e52d560405160405180910390a35050565b600080611b89611cbe565b90508060050160008573ffffffffffffffffffffffffffffffffffffffff1673ffffffffffffffffffffffffffffffffffffffff16815260200190815260200160002060008473ffffffffffffffffffffffffffffffffffffffff1673ffffffffffffffffffffffffffffffffffffffff16815260200190815260200160002060009054906101000a900460ff1691505092915050565b7f189ab7a9244df0848122154315af71fe140f3db0fe014031783b0946b8c9d2e381565b60007f7965db0b000000000000000000000000000000000000000000000000000000007bffffffffffffffffffffffffffffffffffffffffffffffffffffffff1916827bffffffffffffffffffffffffffffffffffffffffffffffffffffffff19161480611cb75750611cb682612a16565b5b9050919050565b60007f80bb2b638cc20bc4d0a60d66940f3ab4a00c1d7b313497ca82fb0b4ab0079300905090565b600080611cf283612af8565b9050600073ffffffffffffffffffffffffffffffffffffffff168173ffffffffffffffffffffffffffffffffffffffff1603611d6557826040517f7e273289000000000000000000000000000000000000000000000000000000008152600401611d5c9190613dce565b60405180910390fd5b80915050919050565b600080611d79611cbe565b905080600401600084815260200190815260200160002060009054906101000a900473ffffffffffffffffffffffffffffffffffffffff16915050919050565b600033905090565b611dce8383836001612b43565b505050565b60008173ffffffffffffffffffffffffffffffffffffffff16611df584611129565b73ffffffffffffffffffffffffffffffffffffffff1603611e195760019050611e7a565b6006600084815260200190815260200160002060008373ffffffffffffffffffffffffffffffffffffffff1673ffffffffffffffffffffffffffffffffffffffff16815260200190815260200160002060009054906101000a900460ff1690505b92915050565b600080611e8b611cbe565b90506000611e9885612af8565b9050600073ffffffffffffffffffffffffffffffffffffffff168473ffffffffffffffffffffffffffffffffffffffff1614611eda57611ed9818587612d17565b5b600073ffffffffffffffffffffffffffffffffffffffff168173ffffffffffffffffffffffffffffffffffffffff1614611f6d57611f1c600086600080612b43565b60018260030160008373ffffffffffffffffffffffffffffffffffffffff1673ffffffffffffffffffffffffffffffffffffffff168152602001908152602001600020600082825403925050819055505b600073ffffffffffffffffffffffffffffffffffffffff168673ffffffffffffffffffffffffffffffffffffffff1614611ff25760018260030160008873ffffffffffffffffffffffffffffffffffffffff1673ffffffffffffffffffffffffffffffffffffffff168152602001908152602001600020600082825401925050819055505b8582600201600087815260200190815260200160002060006101000a81548173ffffffffffffffffffffffffffffffffffffffff021916908373ffffffffffffffffffffffffffffffffffffffff160217905550848673ffffffffffffffffffffffffffffffffffffffff168273ffffffffffffffffffffffffffffffffffffffff167fddf252ad1be2c89b69c2b068fc378daa952ba7f163c4a11628f55a4df523b3ef60405160405180910390a480925050509392505050565b60007f02dd7bc7dec4dceedda775e58dd541e08a116c6c53815c0bd028192f7b626800905090565b6120e6816120e1611db9565b612ddb565b50565b6000806120f46120ad565b905061210084846116ae565b6121de57600181600001600086815260200190815260200160002060000160008573ffffffffffffffffffffffffffffffffffffffff1673ffffffffffffffffffffffffffffffffffffffff16815260200190815260200160002060006101000a81548160ff02191690831515021790555061217a611db9565b73ffffffffffffffffffffffffffffffffffffffff168373ffffffffffffffffffffffffffffffffffffffff16857f2f8788117e7eff1d82e926ec794901d17c78024a50270940304540a733656f0d60405160405180910390a460019150506121e4565b60009150505b92915050565b6000806121f56120ad565b905061220184846116ae565b156122e057600081600001600086815260200190815260200160002060000160008573ffffffffffffffffffffffffffffffffffffffff1673ffffffffffffffffffffffffffffffffffffffff16815260200190815260200160002060006101000a81548160ff02191690831515021790555061227c611db9565b73ffffffffffffffffffffffffffffffffffffffff168373ffffffffffffffffffffffffffffffffffffffff16857ff6391f5c32d9c69d2a47ea670b442974b53935d1edc7fd64eb21e047a839171b60405160405180910390a460019150506122e6565b60009150505b92915050565b6000806122f7612e2c565b90508091505090565b612308612e57565b6123128282612e97565b5050565b61231e612e57565b565b612328612e57565b565b7f000000000000000000000000000000000000000000000000000000000000000073ffffffffffffffffffffffffffffffffffffffff163073ffffffffffffffffffffffffffffffffffffffff1614806123d757507f000000000000000000000000000000000000000000000000000000000000000073ffffffffffffffffffffffffffffffffffffffff166123be612ed4565b73ffffffffffffffffffffffffffffffffffffffff1614155b1561240e576040517fe07c8dba00000000000000000000000000000000000000000000000000000000815260040160405180910390fd5b565b7f189ab7a9244df0848122154315af71fe140f3db0fe014031783b0946b8c9d2e361243a816120d5565b5050565b8173ffffffffffffffffffffffffffffffffffffffff166352d1902d6040518163ffffffff1660e01b8152600401602060405180830381865afa9250505080156124a657506040513d601f19601f820116820180604052508101906124a391906149c5565b60015b6124e757816040517f4c9c8ce30000000000000000000000000000000000000000000000000000000081526004016124de919061381d565b60405180910390fd5b7f360894a13ba1a3210667c828492db98dca3e2076cc3735a920a3ca505d382bbc60001b811461254e57806040517faa1d49a4000000000000000000000000000000000000000000000000000000008152600401612545919061375e565b60405180910390fd5b6125588383612f2b565b505050565b7f000000000000000000000000000000000000000000000000000000000000000073ffffffffffffffffffffffffffffffffffffffff163073ffffffffffffffffffffffffffffffffffffffff16146125e2576040517fe07c8dba00000000000000000000000000000000000000000000000000000000815260040160405180910390fd5b565b60006125ee611cbe565b9050600073ffffffffffffffffffffffffffffffffffffffff168373ffffffffffffffffffffffffffffffffffffffff160361266157826040517f5b08ba18000000000000000000000000000000000000000000000000000000008152600401612658919061381d565b60405180910390fd5b818160050160008673ffffffffffffffffffffffffffffffffffffffff1673ffffffffffffffffffffffffffffffffffffffff16815260200190815260200160002060008573ffffffffffffffffffffffffffffffffffffffff1673ffffffffffffffffffffffffffffffffffffffff16815260200190815260200160002060006101000a81548160ff0219169083151502179055508273ffffffffffffffffffffffffffffffffffffffff168473ffffffffffffffffffffffffffffffffffffffff167f17307eab39ab6107e8899845ad3d59bd9653f200f220920489ca2b5937696c31846040516127549190613678565b60405180910390a350505050565b60008373ffffffffffffffffffffffffffffffffffffffff163b111561290c578273ffffffffffffffffffffffffffffffffffffffff1663150b7a02868685856040518563ffffffff1660e01b81526004016127c19493929190614a47565b6020604051808303816000875af19250505080156127fd57506040513d601f19601f820116820180604052508101906127fa9190614aa8565b60015b612881573d806000811461282d576040519150601f19603f3d011682016040523d82523d6000602084013e612832565b606091505b50600081510361287957836040517f64a0ae92000000000000000000000000000000000000000000000000000000008152600401612870919061381d565b60405180910390fd5b805160208201fd5b63150b7a0260e01b7bffffffffffffffffffffffffffffffffffffffffffffffffffffffff1916817bffffffffffffffffffffffffffffffffffffffffffffffffffffffff19161461290a57836040517f64a0ae92000000000000000000000000000000000000000000000000000000008152600401612901919061381d565b60405180910390fd5b505b5050505050565b61292d828260405180602001604052806000815250612f9e565b5050565b606060405180602001604052806000815250905090565b60606000600161295784612fc2565b01905060008167ffffffffffffffff81111561297657612975613a54565b5b6040519080825280601f01601f1916602001820160405280156129a85781602001600182028036833780820191505090505b509050600082602083010190505b600115612a0b578080600190039150507f3031323334353637383961626364656600000000000000000000000000000000600a86061a8153600a85816129ff576129fe614ad5565b5b049450600085036129b6575b819350505050919050565b60007f80ac58cd000000000000000000000000000000000000000000000000000000007bffffffffffffffffffffffffffffffffffffffffffffffffffffffff1916827bffffffffffffffffffffffffffffffffffffffffffffffffffffffff19161480612ae157507f5b5e139f000000000000000000000000000000000000000000000000000000007bffffffffffffffffffffffffffffffffffffffffffffffffffffffff1916827bffffffffffffffffffffffffffffffffffffffffffffffffffffffff1916145b80612af15750612af082613115565b5b9050919050565b600080612b03611cbe565b905080600201600084815260200190815260200160002060009054906101000a900473ffffffffffffffffffffffffffffffffffffffff16915050919050565b6000612b4d611cbe565b90508180612b885750600073ffffffffffffffffffffffffffffffffffffffff168373ffffffffffffffffffffffffffffffffffffffff1614155b15612cbc576000612b9885611ce6565b9050600073ffffffffffffffffffffffffffffffffffffffff168473ffffffffffffffffffffffffffffffffffffffff1614158015612c0357508373ffffffffffffffffffffffffffffffffffffffff168173ffffffffffffffffffffffffffffffffffffffff1614155b8015612c165750612c148185611b7e565b155b15612c5857836040517fa9fbf51f000000000000000000000000000000000000000000000000000000008152600401612c4f919061381d565b60405180910390fd5b8215612cba57848673ffffffffffffffffffffffffffffffffffffffff168273ffffffffffffffffffffffffffffffffffffffff167f8c5be1e5ebec7d5bd14f71427d1e84f3dd0314c0f7b2291e5b200ac8c7c3b92560405160405180910390a45b505b8481600401600086815260200190815260200160002060006101000a81548173ffffffffffffffffffffffffffffffffffffffff021916908373ffffffffffffffffffffffffffffffffffffffff1602179055505050505050565b612d2283838361317f565b612dd657600073ffffffffffffffffffffffffffffffffffffffff168373ffffffffffffffffffffffffffffffffffffffff1603612d9757806040517f7e273289000000000000000000000000000000000000000000000000000000008152600401612d8e9190613dce565b60405180910390fd5b81816040517f177e802f000000000000000000000000000000000000000000000000000000008152600401612dcd929190614b04565b60405180910390fd5b505050565b612de582826116ae565b612e285780826040517fe2517d3f000000000000000000000000000000000000000000000000000000008152600401612e1f929190614b2d565b60405180910390fd5b5050565b60007ff0c57e16840df040f15088dc2f81fe391c3923bec73e23a9662efc9c229c6a0060001b905090565b612e5f613240565b612e95576040517fd7e6bcf800000000000000000000000000000000000000000000000000000000815260040160405180910390fd5b565b612e9f612e57565b6000612ea9611cbe565b905082816000019081612ebc9190614b56565b5081816001019081612ece9190614b56565b50505050565b6000612f027f360894a13ba1a3210667c828492db98dca3e2076cc3735a920a3ca505d382bbc60001b613260565b60000160009054906101000a900473ffffffffffffffffffffffffffffffffffffffff16905090565b612f348261326a565b8173ffffffffffffffffffffffffffffffffffffffff167fbc7cd75a20ee27fd9adebab32041f755214dbc6bffa90cc0225b39da2e5c2d3b60405160405180910390a2600081511115612f9157612f8b8282613337565b50612f9a565b612f996133bb565b5b5050565b612fa883836133f8565b612fbd612fb3611db9565b6000858585612762565b505050565b600080600090507a184f03e93ff9f4daa797ed6e38ed64bf6a1f0100000000000000008310613020577a184f03e93ff9f4daa797ed6e38ed64bf6a1f010000000000000000838161301657613015614ad5565b5b0492506040810190505b6d04ee2d6d415b85acef8100000000831061305d576d04ee2d6d415b85acef8100000000838161305357613052614ad5565b5b0492506020810190505b662386f26fc10000831061308c57662386f26fc10000838161308257613081614ad5565b5b0492506010810190505b6305f5e10083106130b5576305f5e10083816130ab576130aa614ad5565b5b0492506008810190505b61271083106130da5761271083816130d0576130cf614ad5565b5b0492506004810190505b606483106130fd57606483816130f3576130f2614ad5565b5b0492506002810190505b600a831061310c576001810190505b80915050919050565b60007f01ffc9a7000000000000000000000000000000000000000000000000000000007bffffffffffffffffffffffffffffffffffffffffffffffffffffffff1916827bffffffffffffffffffffffffffffffffffffffffffffffffffffffff1916149050919050565b60008073ffffffffffffffffffffffffffffffffffffffff168373ffffffffffffffffffffffffffffffffffffffff161415801561323757508273ffffffffffffffffffffffffffffffffffffffff168473ffffffffffffffffffffffffffffffffffffffff1614806131f857506131f78484611b7e565b5b8061323657508273ffffffffffffffffffffffffffffffffffffffff1661321e83611d6e565b73ffffffffffffffffffffffffffffffffffffffff16145b5b90509392505050565b600061324a6122ec565b60000160089054906101000a900460ff16905090565b6000819050919050565b60008173ffffffffffffffffffffffffffffffffffffffff163b036132c657806040517f4c9c8ce30000000000000000000000000000000000000000000000000000000081526004016132bd919061381d565b60405180910390fd5b806132f37f360894a13ba1a3210667c828492db98dca3e2076cc3735a920a3ca505d382bbc60001b613260565b60000160006101000a81548173ffffffffffffffffffffffffffffffffffffffff021916908373ffffffffffffffffffffffffffffffffffffffff16021790555050565b60606000808473ffffffffffffffffffffffffffffffffffffffff16846040516133619190614c64565b600060405180830381855af49150503d806000811461339c576040519150601f19603f3d011682016040523d82523d6000602084013e6133a1565b606091505b50915091506133b18583836134f1565b9250505092915050565b60003411156133f6576040517fb398979f00000000000000000000000000000000000000000000000000000000815260040160405180910390fd5b565b600073ffffffffffffffffffffffffffffffffffffffff168273ffffffffffffffffffffffffffffffffffffffff160361346a5760006040517f64a0ae92000000000000000000000000000000000000000000000000000000008152600401613461919061381d565b60405180910390fd5b600061347883836000611e80565b9050600073ffffffffffffffffffffffffffffffffffffffff168173ffffffffffffffffffffffffffffffffffffffff16146134ec5760006040517f73c6ac6e0000000000000000000000000000000000000000000000000000000081526004016134e3919061381d565b60405180910390fd5b505050565b6060826135065761350182613580565b613578565b6000825114801561352e575060008473ffffffffffffffffffffffffffffffffffffffff163b145b1561357057836040517f9996b315000000000000000000000000000000000000000000000000000000008152600401613567919061381d565b60405180910390fd5b819050613579565b5b9392505050565b60008151111561359257805160208201fd5b6040517fd6bda27500000000000000000000000000000000000000000000000000000000815260040160405180910390fd5b6000604051905090565b600080fd5b600080fd5b60007fffffffff0000000000000000000000000000000000000000000000000000000082169050919050565b61360d816135d8565b811461361857600080fd5b50565b60008135905061362a81613604565b92915050565b600060208284031215613646576136456135ce565b5b60006136548482850161361b565b91505092915050565b60008115159050919050565b6136728161365d565b82525050565b600060208201905061368d6000830184613669565b92915050565b600081519050919050565b600082825260208201905092915050565b60005b838110156136cd5780820151818401526020810190506136b2565b60008484015250505050565b6000601f19601f8301169050919050565b60006136f582613693565b6136ff818561369e565b935061370f8185602086016136af565b613718816136d9565b840191505092915050565b6000602082019050818103600083015261373d81846136ea565b905092915050565b6000819050919050565b61375881613745565b82525050565b6000602082019050613773600083018461374f565b92915050565b6000819050919050565b61378c81613779565b811461379757600080fd5b50565b6000813590506137a981613783565b92915050565b6000602082840312156137c5576137c46135ce565b5b60006137d38482850161379a565b91505092915050565b600073ffffffffffffffffffffffffffffffffffffffff82169050919050565b6000613807826137dc565b9050919050565b613817816137fc565b82525050565b6000602082019050613832600083018461380e565b92915050565b613841816137fc565b811461384c57600080fd5b50565b60008135905061385e81613838565b92915050565b6000806040838503121561387b5761387a6135ce565b5b60006138898582860161384f565b925050602061389a8582860161379a565b9150509250929050565b6000806000606084860312156138bd576138bc6135ce565b5b60006138cb8682870161384f565b93505060206138dc8682870161384f565b92505060406138ed8682870161379a565b9150509250925092565b61390081613745565b811461390b57600080fd5b50565b60008135905061391d816138f7565b92915050565b600060208284031215613939576139386135ce565b5b60006139478482850161390e565b91505092915050565b6000819050919050565b600061397561397061396b846137dc565b613950565b6137dc565b9050919050565b60006139878261395a565b9050919050565b60006139998261397c565b9050919050565b6139a98161398e565b82525050565b60006020820190506139c460008301846139a0565b92915050565b600080604083850312156139e1576139e06135ce565b5b60006139ef8582860161390e565b9250506020613a008582860161384f565b9150509250929050565b60008060408385031215613a2157613a206135ce565b5b6000613a2f8582860161384f565b9250506020613a408582860161384f565b9150509250929050565b600080fd5b600080fd5b7f4e487b7100000000000000000000000000000000000000000000000000000000600052604160045260246000fd5b613a8c826136d9565b810181811067ffffffffffffffff82111715613aab57613aaa613a54565b5b80604052505050565b6000613abe6135c4565b9050613aca8282613a83565b919050565b600067ffffffffffffffff821115613aea57613ae9613a54565b5b613af3826136d9565b9050602081019050919050565b82818337600083830152505050565b6000613b22613b1d84613acf565b613ab4565b905082815260208101848484011115613b3e57613b3d613a4f565b5b613b49848285613b00565b509392505050565b600082601f830112613b6657613b65613a4a565b5b8135613b76848260208601613b0f565b91505092915050565b60008060408385031215613b9657613b956135ce565b5b6000613ba48582860161384f565b925050602083013567ffffffffffffffff811115613bc557613bc46135d3565b5b613bd185828601613b51565b9150509250929050565b600080fd5b600081905082602060020282011115613bfc57613bfb613bdb565b5b92915050565b600081905082604060020282011115613c1e57613c1d613bdb565b5b92915050565b600081905082602060010282011115613c4057613c3f613bdb565b5b92915050565b6000806000806000806101608789031215613c6457613c636135ce565b5b6000613c7289828a01613be0565b9650506040613c8389828a01613c02565b95505060c0613c9489828a01613be0565b945050610100613ca689828a01613c24565b935050610120613cb889828a0161384f565b925050610140613cca89828a0161379a565b9150509295509295509295565b60008060408385031215613cee57613ced6135ce565b5b6000613cfc8582860161379a565b9250506020613d0d8582860161384f565b9150509250929050565b600080fd5b60008083601f840112613d3257613d31613a4a565b5b8235905067ffffffffffffffff811115613d4f57613d4e613d17565b5b602083019150836001820283011115613d6b57613d6a613bdb565b5b9250929050565b60008060208385031215613d8957613d886135ce565b5b600083013567ffffffffffffffff811115613da757613da66135d3565b5b613db385828601613d1c565b92509250509250929050565b613dc881613779565b82525050565b6000602082019050613de36000830184613dbf565b92915050565b600060208284031215613dff57613dfe6135ce565b5b6000613e0d8482850161384f565b91505092915050565b600081519050919050565b600082825260208201905092915050565b6000819050602082019050919050565b600082825260208201905092915050565b6000613e5e82613693565b613e688185613e42565b9350613e788185602086016136af565b613e81816136d9565b840191505092915050565b6000613e988383613e53565b905092915050565b6000602082019050919050565b6000613eb882613e16565b613ec28185613e21565b935083602082028501613ed485613e32565b8060005b85811015613f105784840389528151613ef18582613e8c565b9450613efc83613ea0565b925060208a01995050600181019050613ed8565b50829750879550505050505092915050565b60006020820190508181036000830152613f3c8184613ead565b905092915050565b600081519050919050565b600082825260208201905092915050565b6000819050602082019050919050565b613f7981613779565b82525050565b6000613f8b8383613f70565b60208301905092915050565b6000602082019050919050565b6000613faf82613f44565b613fb98185613f4f565b9350613fc483613f60565b8060005b83811015613ff5578151613fdc8882613f7f565b9750613fe783613f97565b925050600181019050613fc8565b5085935050505092915050565b6000602082019050818103600083015261401c8184613fa4565b905092915050565b61402d8161365d565b811461403857600080fd5b50565b60008135905061404a81614024565b92915050565b60008060408385031215614067576140666135ce565b5b60006140758582860161384f565b92505060206140868582860161403b565b9150509250929050565b600080600080608085870312156140aa576140a96135ce565b5b60006140b88782880161384f565b94505060206140c98782880161384f565b93505060406140da8782880161379a565b925050606085013567ffffffffffffffff8111156140fb576140fa6135d3565b5b61410787828801613b51565b91505092959194509250565b60008060008060006060868803121561412f5761412e6135ce565b5b600061413d8882890161384f565b955050602086013567ffffffffffffffff81111561415e5761415d6135d3565b5b61416a88828901613d1c565b9450945050604086013567ffffffffffffffff81111561418d5761418c6135d3565b5b61419988828901613d1c565b92509250509295509295909350565b7f4e487b7100000000000000000000000000000000000000000000000000000000600052602260045260246000fd5b600060028204905060018216806141ef57607f821691505b602082108103614202576142016141a8565b5b50919050565b600060608201905061421d600083018661380e565b61422a6020830185613dbf565b614237604083018461380e565b949350505050565b6000819050919050565b600067ffffffffffffffff82169050919050565b600061427861427361426e8461423f565b613950565b614249565b9050919050565b6142888161425d565b82525050565b60006020820190506142a3600083018461427f565b92915050565b82818337505050565b6142be604083836142a9565b5050565b600060029050919050565b600081905092915050565b6000819050919050565b6142ee604083836142a9565b5050565b60006142fe83836142e2565b60408301905092915050565b600082905092915050565b6000604082019050919050565b61432b816142c2565b61433581846142cd565b9250614340826142d8565b8060005b8381101561437957614356828461430a565b61436087826142f2565b965061436b83614315565b925050600181019050614344565b505050505050565b61438d602083836142a9565b5050565b6000610120820190506143a760008301876142b2565b6143b46040830186614322565b6143c160c08301856142b2565b6143cf610100830184614381565b95945050505050565b6000815190506143e781614024565b92915050565b600060208284031215614403576144026135ce565b5b6000614411848285016143d8565b91505092915050565b7f496e76616c69642070726f6f66206f72207075626c696320696e707574730000600082015250565b6000614450601e8361369e565b915061445b8261441a565b602082019050919050565b6000602082019050818103600083015261447f81614443565b9050919050565b7f4e487b7100000000000000000000000000000000000000000000000000000000600052603260045260246000fd5b60006040820190506144ca6000830185613dbf565b6144d76020830184613dbf565b9392505050565b7f4f6e6c79206f776e657200000000000000000000000000000000000000000000600082015250565b6000614514600a8361369e565b915061451f826144de565b602082019050919050565b6000602082019050818103600083015261454381614507565b9050919050565b600081905092915050565b6000614561838561454a565b935061456e838584613b00565b82840190509392505050565b6000614587828486614555565b91508190509392505050565b7f434944206e6f6e2074726f7661746f0000000000000000000000000000000000600082015250565b60006145c9600f8361369e565b91506145d482614593565b602082019050919050565b600060208201905081810360008301526145f8816145bc565b9050919050565b7f4e487b7100000000000000000000000000000000000000000000000000000000600052601160045260246000fd5b600061463982613779565b91507fffffffffffffffffffffffffffffffffffffffffffffffffffffffffffffffff820361466b5761466a6145ff565b5b600182019050919050565b600082905092915050565b60008190508160005260206000209050919050565b60006020601f8301049050919050565b600082821b905092915050565b6000600883026146e37fffffffffffffffffffffffffffffffffffffffffffffffffffffffffffffffff826146a6565b6146ed86836146a6565b95508019841693508086168417925050509392505050565b600061472061471b61471684613779565b613950565b613779565b9050919050565b6000819050919050565b61473a83614705565b61474e61474682614727565b8484546146b3565b825550505050565b600090565b614763614756565b61476e818484614731565b505050565b5b818110156147925761478760008261475b565b600181019050614774565b5050565b601f8211156147d7576147a881614681565b6147b184614696565b810160208510156147c0578190505b6147d46147cc85614696565b830182614773565b50505b505050565b600082821c905092915050565b60006147fa600019846008026147dc565b1980831691505092915050565b600061481383836147e9565b9150826002028217905092915050565b61482d8383614676565b67ffffffffffffffff81111561484657614845613a54565b5b61485082546141d7565b61485b828285614796565b6000601f83116001811461488a5760008415614878578287013590505b6148828582614807565b8655506148ea565b601f19841661489886614681565b60005b828110156148c05784890135825560018201915060208501945060208101905061489b565b868310156148dd57848901356148d9601f8916826147e9565b8355505b6001600288020188555050505b50505050505050565b60006148ff838561369e565b935061490c838584613b00565b614915836136d9565b840190509392505050565b6000604082019050818103600083015261493b8186886148f3565b905081810360208301526149508184866148f3565b905095945050505050565b600061496682613693565b614970818561454a565b93506149808185602086016136af565b80840191505092915050565b6000614998828561495b565b91506149a4828461495b565b91508190509392505050565b6000815190506149bf816138f7565b92915050565b6000602082840312156149db576149da6135ce565b5b60006149e9848285016149b0565b91505092915050565b600081519050919050565b600082825260208201905092915050565b6000614a19826149f2565b614a2381856149fd565b9350614a338185602086016136af565b614a3c816136d9565b840191505092915050565b6000608082019050614a5c600083018761380e565b614a69602083018661380e565b614a766040830185613dbf565b8181036060830152614a888184614a0e565b905095945050505050565b600081519050614aa281613604565b92915050565b600060208284031215614abe57614abd6135ce565b5b6000614acc84828501614a93565b91505092915050565b7f4e487b7100000000000000000000000000000000000000000000000000000000600052601260045260246000fd5b6000604082019050614b19600083018561380e565b614b266020830184613dbf565b9392505050565b6000604082019050614b42600083018561380e565b614b4f602083018461374f565b9392505050565b614b5f82613693565b67ffffffffffffffff811115614b7857614b77613a54565b5b614b8282546141d7565b614b8d828285614796565b600060209050601f831160018114614bc05760008415614bae578287015190505b614bb88582614807565b865550614c20565b601f198416614bce86614681565b60005b82811015614bf657848901518255600182019150602085019450602081019050614bd1565b86831015614c135784890151614c0f601f8916826147e9565b8355505b6001600288020188555050505b505050505050565b600081905092915050565b6000614c3e826149f2565b614c488185614c28565b9350614c588185602086016136af565b80840191505092915050565b6000614c708284614c33565b91508190509291505056fea26469706673582212209bc6baf56ab14912e57b2c48486959d57e24c71ad01d2ede0cd0e0b3fc6e7fe364736f6c634300081c0033",
  "linkReferences": {},
  "deployedLinkReferences": {}
}