{
  "_format": "hh-sol-artifact-1",
  "contractName": "HealthRecordNFT",
  "sourceName": "contracts/HealthRecordNFT.sol",
  "abi": [
    {
      "inputs": [],
      "name": "AccessControlBadConfirmation",
      "type": "error"
    },
    {
      "inputs": [
        {
          "internalType": "address",
          "name": "account",
          "type": "address"
        },
        {
          "internalType": "bytes32",
          "name": "neededRole",
          "type": "bytes32"
        }
      ],
      "name": "AccessControlUnauthorizedAccount",
      "type": "error"
    },
    {
      "inputs": [
        {
          "internalType": "address",
          "name": "target",
          "type": "address"
        }
      ],
      "name": "AddressEmptyCode",
      "type": "error"
    },
    {
      "inputs": [
        {
          "internalType": "address",
          "name": "implementation",
          "type": "address"
        }
      ],
      "name": "ERC1967InvalidImplementation",
      "type": "error"
    },
    {
      "inputs": [],
      "name": "ERC1967NonPayable",
      "type": "error"
    },
    {
      "inputs": [
        {
          "internalType": "address",
          "name": "sender",
          "type": "address"
        },
        {
          "internalType": "uint256",
          "name": "tokenId",
          "type": "uint256"
        },
        {
          "internalType": "address",
          "name": "owner",
          "type": "address"
        }
      ],
      "name": "ERC721IncorrectOwner",
      "type": "error"
    },
    {
      "inputs": [
        {
          "internalType": "address",
          "name": "operator",
          "type": "address"
        },
        {
          "internalType": "uint256",
          "name": "tokenId",
          "type": "uint256"
        }
      ],
      "name": "ERC721InsufficientApproval",
      "type": "error"
    },
    {
      "inputs": [
        {
          "internalType": "address",
          "name": "approver",
          "type": "address"
        }
      ],
      "name": "ERC721InvalidApprover",
      "type": "error"
    },
    {
      "inputs": [
        {
          "internalType": "address",
          "name": "operator",
          "type": "address"
        }
      ],
      "name": "ERC721InvalidOperator",
      "type": "error"
    },
    {
      "inputs": [
        {
          "internalType": "address",
          "name": "owner",
          "type": "address"
        }
      ],
      "name": "ERC721InvalidOwner",
      "type": "error"
    },
    {
      "inputs": [
        {
          "internalType": "address",
          "name": "receiver",
          "type": "address"
        }
      ],
      "name": "ERC721InvalidReceiver",
      "type": "error"
    },
    {
      "inputs": [
        {
          "internalType": "address",
          "name": "sender",
          "type": "address"
        }
      ],
      "name": "ERC721InvalidSender",
      "type": "error"
    },
    {
      "inputs": [
        {
          "internalType": "uint256",
          "name": "tokenId",
          "type": "uint256"
        }
      ],
      "name": "ERC721NonexistentToken",
      "type": "error"
    },
    {
      "inputs": [],
      "name": "FailedCall",
      "type": "error"
    },
    {
      "inputs": [],
      "name": "InvalidInitialization",
      "type": "error"
    },
    {
      "inputs": [],
      "name": "NotInitializing",
      "type": "error"
    },
    {
      "inputs": [],
      "name": "UUPSUnauthorizedCallContext",
      "type": "error"
    },
    {
      "inputs": [
        {
          "internalType": "bytes32",
          "name": "slot",
          "type": "bytes32"
        }
      ],
      "name": "UUPSUnsupportedProxiableUUID",
      "type": "error"
    },
    {
      "anonymous": false,
      "inputs": [
        {
          "indexed": true,
          "internalType": "uint256",
          "name": "tokenId",
          "type": "uint256"
        },
        {
          "indexed": true,
          "internalType": "address",
          "name": "grantee",
          "type": "address"
        }
      ],
      "name": "AccessGranted",
      "type": "event"
    },
    {
      "anonymous": false,
      "inputs": [
        {
          "indexed": true,
          "internalType": "uint256",
          "name": "tokenId",
          "type": "uint256"
        },
        {
          "indexed": true,
          "internalType": "address",
          "name": "grantee",
          "type": "address"
        }
      ],
      "name": "AccessRevoked",
      "type": "event"
    },
    {
      "anonymous": false,
      "inputs": [
        {
          "indexed": true,
          "internalType": "address",
          "name": "patient",
          "type": "address"
        },
        {
          "indexed": true,
          "internalType": "address",
          "name": "doctor",
          "type": "address"
        },
        {
          "indexed": false,
          "internalType": "uint256",
          "name": "requiredYear",
          "type": "uint256"
        },
        {
          "indexed": false,
          "internalType": "uint256",
          "name": "requiredMonth",
          "type": "uint256"
        },
        {
          "indexed": false,
          "internalType": "uint256",
          "name": "requiredDay",
          "type": "uint256"
        }
      ],
      "name": "AgeVerificationRequested",
      "type": "event"
    },
    {
      "anonymous": false,
      "inputs": [
        {
          "indexed": true,
          "internalType": "address",
          "name": "doctor",
          "type": "address"
        },
        {
          "indexed": true,
          "internalType": "address",
          "name": "user",
          "type": "address"
        },
        {
          "indexed": false,
          "internalType": "uint256",
          "name": "requiredYear",
          "type": "uint256"
        },
        {
          "indexed": false,
          "internalType": "uint256",
          "name": "requiredMonth",
          "type": "uint256"
        },
        {
          "indexed": false,
          "internalType": "uint256",
          "name": "requiredDay",
          "type": "uint256"
        },
        {
          "indexed": false,
          "internalType": "uint256",
          "name": "result",
          "type": "uint256"
        }
      ],
      "name": "AgeVerificationResult",
      "type": "event"
    },
    {
      "anonymous": false,
      "inputs": [
        {
          "indexed": true,
          "internalType": "address",
          "name": "owner",
          "type": "address"
        },
        {
          "indexed": true,
          "internalType": "address",
          "name": "approved",
          "type": "address"
        },
        {
          "indexed": true,
          "internalType": "uint256",
          "name": "tokenId",
          "type": "uint256"
        }
      ],
      "name": "Approval",
      "type": "event"
    },
    {
      "anonymous": false,
      "inputs": [
        {
          "indexed": true,
          "internalType": "address",
          "name": "owner",
          "type": "address"
        },
        {
          "indexed": true,
          "internalType": "address",
          "name": "operator",
          "type": "address"
        },
        {
          "indexed": false,
          "internalType": "bool",
          "name": "approved",
          "type": "bool"
        }
      ],
      "name": "ApprovalForAll",
      "type": "event"
    },
    {
      "anonymous": false,
      "inputs": [
        {
          "indexed": false,
          "internalType": "uint64",
          "name": "version",
          "type": "uint64"
        }
      ],
      "name": "Initialized",
      "type": "event"
    },
    {
      "anonymous": false,
      "inputs": [
        {
          "indexed": true,
          "internalType": "uint256",
          "name": "tokenId",
          "type": "uint256"
        },
        {
          "indexed": true,
          "internalType": "address",
          "name": "owner",
          "type": "address"
        },
        {
          "indexed": false,
          "internalType": "string",
          "name": "metadataCID",
          "type": "string"
        },
        {
          "indexed": false,
          "internalType": "string",
          "name": "patientId",
          "type": "string"
        }
      ],
      "name": "MintedRecord",
      "type": "event"
    },
    {
      "anonymous": false,
      "inputs": [
        {
          "indexed": true,
          "internalType": "bytes32",
          "name": "role",
          "type": "bytes32"
        },
        {
          "indexed": true,
          "internalType": "bytes32",
          "name": "previousAdminRole",
          "type": "bytes32"
        },
        {
          "indexed": true,
          "internalType": "bytes32",
          "name": "newAdminRole",
          "type": "bytes32"
        }
      ],
      "name": "RoleAdminChanged",
      "type": "event"
    },
    {
      "anonymous": false,
      "inputs": [
        {
          "indexed": true,
          "internalType": "bytes32",
          "name": "role",
          "type": "bytes32"
        },
        {
          "indexed": true,
          "internalType": "address",
          "name": "account",
          "type": "address"
        },
        {
          "indexed": true,
          "internalType": "address",
          "name": "sender",
          "type": "address"
        }
      ],
      "name": "RoleGranted",
      "type": "event"
    },
    {
      "anonymous": false,
      "inputs": [
        {
          "indexed": true,
          "internalType": "bytes32",
          "name": "role",
          "type": "bytes32"
        },
        {
          "indexed": true,
          "internalType": "address",
          "name": "account",
          "type": "address"
        },
        {
          "indexed": true,
          "internalType": "address",
          "name": "sender",
          "type": "address"
        }
      ],
      "name": "RoleRevoked",
      "type": "event"
    },
    {
      "anonymous": false,
      "inputs": [
        {
          "indexed": true,
          "internalType": "address",
          "name": "from",
          "type": "address"
        },
        {
          "indexed": true,
          "internalType": "address",
          "name": "to",
          "type": "address"
        },
        {
          "indexed": true,
          "internalType": "uint256",
          "name": "tokenId",
          "type": "uint256"
        }
      ],
      "name": "Transfer",
      "type": "event"
    },
    {
      "anonymous": false,
      "inputs": [
        {
          "indexed": true,
          "internalType": "address",
          "name": "implementation",
          "type": "address"
        }
      ],
      "name": "Upgraded",
      "type": "event"
    },
    {
      "inputs": [],
      "name": "DEFAULT_ADMIN_ROLE",
      "outputs": [
        {
          "internalType": "bytes32",
          "name": "",
          "type": "bytes32"
        }
      ],
      "stateMutability": "view",
      "type": "function"
    },
    {
      "inputs": [],
      "name": "ORACLE_ROLE",
      "outputs": [
        {
          "internalType": "bytes32",
          "name": "",
          "type": "bytes32"
        }
      ],
      "stateMutability": "view",
      "type": "function"
    },
    {
      "inputs": [],
      "name": "UPGRADER_ROLE",
      "outputs": [
        {
          "internalType": "bytes32",
          "name": "",
          "type": "bytes32"
        }
      ],
      "stateMutability": "view",
      "type": "function"
    },
    {
      "inputs": [],
      "name": "UPGRADE_INTERFACE_VERSION",
      "outputs": [
        {
          "internalType": "string",
          "name": "",
          "type": "string"
        }
      ],
      "stateMutability": "view",
      "type": "function"
    },
    {
      "inputs": [
        {
          "internalType": "uint256[2]",
          "name": "a",
          "type": "uint256[2]"
        },
        {
          "internalType": "uint256[2][2]",
          "name": "b",
          "type": "uint256[2][2]"
        },
        {
          "internalType": "uint256[2]",
          "name": "c",
          "type": "uint256[2]"
        },
        {
          "internalType": "uint256[1]",
          "name": "publicInputs",
          "type": "uint256[1]"
        },
        {
          "internalType": "address",
          "name": "doctor",
          "type": "address"
        },
        {
          "internalType": "uint256",
          "name": "requiredYear",
          "type": "uint256"
        },
        {
          "internalType": "uint256",
          "name": "requiredMonth",
          "type": "uint256"
        },
        {
          "internalType": "uint256",
          "name": "requiredDay",
          "type": "uint256"
        }
      ],
      "name": "accessWithProof",
      "outputs": [],
      "stateMutability": "nonpayable",
      "type": "function"
    },
    {
      "inputs": [
        {
          "internalType": "uint256",
          "name": "",
          "type": "uint256"
        }
      ],
      "name": "allowedAgeLimits",
      "outputs": [
        {
          "internalType": "uint256",
          "name": "",
          "type": "uint256"
        }
      ],
      "stateMutability": "view",
      "type": "function"
    },
    {
      "inputs": [
        {
          "internalType": "address",
          "name": "to",
          "type": "address"
        },
        {
          "internalType": "uint256",
          "name": "tokenId",
          "type": "uint256"
        }
      ],
      "name": "approve",
      "outputs": [],
      "stateMutability": "nonpayable",
      "type": "function"
    },
    {
      "inputs": [
        {
          "internalType": "address",
          "name": "owner",
          "type": "address"
        }
      ],
      "name": "balanceOf",
      "outputs": [
        {
          "internalType": "uint256",
          "name": "",
          "type": "uint256"
        }
      ],
      "stateMutability": "view",
      "type": "function"
    },
    {
      "inputs": [
        {
          "internalType": "address",
          "name": "owner",
          "type": "address"
        }
      ],
      "name": "getAllMetadataCID",
      "outputs": [
        {
          "internalType": "string[]",
          "name": "",
          "type": "string[]"
        }
      ],
      "stateMutability": "view",
      "type": "function"
    },
    {
      "inputs": [
        {
          "internalType": "uint256",
          "name": "tokenId",
          "type": "uint256"
        }
      ],
      "name": "getApproved",
      "outputs": [
        {
          "internalType": "address",
          "name": "",
          "type": "address"
        }
      ],
      "stateMutability": "view",
      "type": "function"
    },
    {
      "inputs": [
        {
          "internalType": "bytes32",
          "name": "role",
          "type": "bytes32"
        }
      ],
      "name": "getRoleAdmin",
      "outputs": [
        {
          "internalType": "bytes32",
          "name": "",
          "type": "bytes32"
        }
      ],
      "stateMutability": "view",
      "type": "function"
    },
    {
      "inputs": [
        {
          "internalType": "string",
          "name": "cid",
          "type": "string"
        }
      ],
      "name": "getTokenIdByCID",
      "outputs": [
        {
          "internalType": "uint256",
          "name": "",
          "type": "uint256"
        }
      ],
      "stateMutability": "view",
      "type": "function"
    },
    {
      "inputs": [
        {
          "internalType": "uint256",
          "name": "tokenId",
          "type": "uint256"
        },
        {
          "internalType": "address",
          "name": "grantee",
          "type": "address"
        }
      ],
      "name": "grantAccess",
      "outputs": [],
      "stateMutability": "nonpayable",
      "type": "function"
    },
    {
      "inputs": [
        {
          "internalType": "bytes32",
          "name": "role",
          "type": "bytes32"
        },
        {
          "internalType": "address",
          "name": "account",
          "type": "address"
        }
      ],
      "name": "grantRole",
      "outputs": [],
      "stateMutability": "nonpayable",
      "type": "function"
    },
    {
      "inputs": [
        {
          "internalType": "bytes32",
          "name": "role",
          "type": "bytes32"
        },
        {
          "internalType": "address",
          "name": "account",
          "type": "address"
        }
      ],
      "name": "hasRole",
      "outputs": [
        {
          "internalType": "bool",
          "name": "",
          "type": "bool"
        }
      ],
      "stateMutability": "view",
      "type": "function"
    },
    {
      "inputs": [
        {
          "internalType": "address",
          "name": "admin",
          "type": "address"
        },
        {
          "internalType": "address",
          "name": "verifierAddress",
          "type": "address"
        }
      ],
      "name": "initialize",
      "outputs": [],
      "stateMutability": "nonpayable",
      "type": "function"
    },
    {
      "inputs": [
        {
          "internalType": "uint256",
          "name": "age",
          "type": "uint256"
        }
      ],
      "name": "isAllowedAgeLimit",
      "outputs": [
        {
          "internalType": "bool",
          "name": "",
          "type": "bool"
        }
      ],
      "stateMutability": "view",
      "type": "function"
    },
    {
      "inputs": [
        {
          "internalType": "address",
          "name": "owner",
          "type": "address"
        },
        {
          "internalType": "address",
          "name": "operator",
          "type": "address"
        }
      ],
      "name": "isApprovedForAll",
      "outputs": [
        {
          "internalType": "bool",
          "name": "",
          "type": "bool"
        }
      ],
      "stateMutability": "view",
      "type": "function"
    },
    {
      "inputs": [
        {
          "internalType": "address",
          "name": "to",
          "type": "address"
        },
        {
          "internalType": "string",
          "name": "metadataCID",
          "type": "string"
        },
        {
          "internalType": "string",
          "name": "patientId",
          "type": "string"
        }
      ],
      "name": "mintRecord",
      "outputs": [
        {
          "internalType": "uint256",
          "name": "",
          "type": "uint256"
        }
      ],
      "stateMutability": "nonpayable",
      "type": "function"
    },
    {
      "inputs": [],
      "name": "name",
      "outputs": [
        {
          "internalType": "string",
          "name": "",
          "type": "string"
        }
      ],
      "stateMutability": "view",
      "type": "function"
    },
    {
      "inputs": [
        {
          "internalType": "uint256",
          "name": "tokenId",
          "type": "uint256"
        }
      ],
      "name": "ownerOf",
      "outputs": [
        {
          "internalType": "address",
          "name": "",
          "type": "address"
        }
      ],
      "stateMutability": "view",
      "type": "function"
    },
    {
      "inputs": [],
      "name": "proxiableUUID",
      "outputs": [
        {
          "internalType": "bytes32",
          "name": "",
          "type": "bytes32"
        }
      ],
      "stateMutability": "view",
      "type": "function"
    },
    {
      "inputs": [
        {
          "internalType": "bytes32",
          "name": "role",
          "type": "bytes32"
        },
        {
          "internalType": "address",
          "name": "callerConfirmation",
          "type": "address"
        }
      ],
      "name": "renounceRole",
      "outputs": [],
      "stateMutability": "nonpayable",
      "type": "function"
    },
    {
      "inputs": [
        {
          "internalType": "address",
          "name": "patient",
          "type": "address"
        },
        {
          "internalType": "address",
          "name": "doctor",
          "type": "address"
        },
        {
          "internalType": "uint256",
          "name": "ageLimit",
          "type": "uint256"
        },
        {
          "internalType": "uint256",
          "name": "year",
          "type": "uint256"
        },
        {
          "internalType": "uint256",
          "name": "month",
          "type": "uint256"
        },
        {
          "internalType": "uint256",
          "name": "day",
          "type": "uint256"
        }
      ],
      "name": "requestAgeVerification",
      "outputs": [],
      "stateMutability": "nonpayable",
      "type": "function"
    },
    {
      "inputs": [
        {
          "internalType": "uint256",
          "name": "tokenId",
          "type": "uint256"
        },
        {
          "internalType": "address",
          "name": "grantee",
          "type": "address"
        }
      ],
      "name": "revokeAccess",
      "outputs": [],
      "stateMutability": "nonpayable",
      "type": "function"
    },
    {
      "inputs": [
        {
          "internalType": "bytes32",
          "name": "role",
          "type": "bytes32"
        },
        {
          "internalType": "address",
          "name": "account",
          "type": "address"
        }
      ],
      "name": "revokeRole",
      "outputs": [],
      "stateMutability": "nonpayable",
      "type": "function"
    },
    {
      "inputs": [
        {
          "internalType": "address",
          "name": "from",
          "type": "address"
        },
        {
          "internalType": "address",
          "name": "to",
          "type": "address"
        },
        {
          "internalType": "uint256",
          "name": "tokenId",
          "type": "uint256"
        }
      ],
      "name": "safeTransferFrom",
      "outputs": [],
      "stateMutability": "nonpayable",
      "type": "function"
    },
    {
      "inputs": [
        {
          "internalType": "address",
          "name": "from",
          "type": "address"
        },
        {
          "internalType": "address",
          "name": "to",
          "type": "address"
        },
        {
          "internalType": "uint256",
          "name": "tokenId",
          "type": "uint256"
        },
        {
          "internalType": "bytes",
          "name": "data",
          "type": "bytes"
        }
      ],
      "name": "safeTransferFrom",
      "outputs": [],
      "stateMutability": "nonpayable",
      "type": "function"
    },
    {
      "inputs": [
        {
          "internalType": "address",
          "name": "operator",
          "type": "address"
        },
        {
          "internalType": "bool",
          "name": "approved",
          "type": "bool"
        }
      ],
      "name": "setApprovalForAll",
      "outputs": [],
      "stateMutability": "nonpayable",
      "type": "function"
    },
    {
      "inputs": [
        {
          "internalType": "bytes4",
          "name": "interfaceId",
          "type": "bytes4"
        }
      ],
      "name": "supportsInterface",
      "outputs": [
        {
          "internalType": "bool",
          "name": "",
          "type": "bool"
        }
      ],
      "stateMutability": "view",
      "type": "function"
    },
    {
      "inputs": [],
      "name": "symbol",
      "outputs": [
        {
          "internalType": "string",
          "name": "",
          "type": "string"
        }
      ],
      "stateMutability": "view",
      "type": "function"
    },
    {
      "inputs": [
        {
          "internalType": "uint256",
          "name": "tokenId",
          "type": "uint256"
        }
      ],
      "name": "tokenMetadataCID",
      "outputs": [
        {
          "internalType": "string",
          "name": "",
          "type": "string"
        }
      ],
      "stateMutability": "view",
      "type": "function"
    },
    {
      "inputs": [
        {
          "internalType": "uint256",
          "name": "tokenId",
          "type": "uint256"
        }
      ],
      "name": "tokenURI",
      "outputs": [
        {
          "internalType": "string",
          "name": "",
          "type": "string"
        }
      ],
      "stateMutability": "view",
      "type": "function"
    },
    {
      "inputs": [
        {
          "internalType": "address",
          "name": "owner",
          "type": "address"
        }
      ],
      "name": "tokensOfOwner",
      "outputs": [
        {
          "internalType": "uint256[]",
          "name": "",
          "type": "uint256[]"
        }
      ],
      "stateMutability": "view",
      "type": "function"
    },
    {
      "inputs": [
        {
          "internalType": "address",
          "name": "from",
          "type": "address"
        },
        {
          "internalType": "address",
          "name": "to",
          "type": "address"
        },
        {
          "internalType": "uint256",
          "name": "tokenId",
          "type": "uint256"
        }
      ],
      "name": "transferFrom",
      "outputs": [],
      "stateMutability": "nonpayable",
      "type": "function"
    },
    {
      "inputs": [
        {
          "internalType": "address",
          "name": "newImplementation",
          "type": "address"
        },
        {
          "internalType": "bytes",
          "name": "data",
          "type": "bytes"
        }
      ],
      "name": "upgradeToAndCall",
      "outputs": [],
      "stateMutability": "payable",
      "type": "function"
    },
    {
      "inputs": [],
      "name": "verifier",
      "outputs": [
        {
          "internalType": "contract Groth16Verifier",
          "name": "",
          "type": "address"
        }
      ],
      "stateMutability": "view",
      "type": "function"
    }
  ],
  "bytecode": "0x60a06040523073ffffffffffffffffffffffffffffffffffffffff1660809073ffffffffffffffffffffffffffffffffffffffff16815250348015604257600080fd5b5060805161506061006c60003960008181612565015281816125ba015261279801526150606000f3fe60806040526004361061021a5760003560e01c80636352211e11610123578063a217fddf116100ab578063c87b56dd1161006f578063c87b56dd14610844578063d547741f14610881578063d9a5ec1b146108aa578063e985e9c5146108d3578063f72c0d8b146109105761021a565b8063a217fddf1461075f578063a22cb4651461078a578063ad3cb1cc146107b3578063b88d4fde146107de578063c673cce7146108075761021a565b806378fa0b8e116100f257806378fa0b8e1461065457806381d59b52146106915780638462151c146106ba57806391d14854146106f757806395d89b41146107345761021a565b80636352211e1461057457806365dd152c146105b1578063682c9a59146105da57806370a08231146106175761021a565b80632b91900c116101a657806340a2522d1161017557806340a2522d146104b257806342842e0e146104db578063485cc955146105045780634f1ef2861461052d57806352d1902d146105495761021a565b80632b91900c146103e65780632f2ff15d146104235780632fddb4241461044c57806336568abe146104895761021a565b8063095ea7b3116101ed578063095ea7b3146102ef578063210563681461031857806323b872dd14610355578063248a9ca31461037e5780632b7ac3f3146103bb5761021a565b806301ffc9a71461021f57806306fdde031461025c57806307e2cea514610287578063081812fc146102b2575b600080fd5b34801561022b57600080fd5b5061024660048036038101906102419190613869565b61093b565b60405161025391906138b1565b60405180910390f35b34801561026857600080fd5b5061027161094d565b60405161027e919061395c565b60405180910390f35b34801561029357600080fd5b5061029c6109ee565b6040516102a99190613997565b60405180910390f35b3480156102be57600080fd5b506102d960048036038101906102d491906139e8565b610a12565b6040516102e69190613a56565b60405180910390f35b3480156102fb57600080fd5b5061031660048036038101906103119190613a9d565b610a2e565b005b34801561032457600080fd5b5061033f600480360381019061033a91906139e8565b610a44565b60405161034c919061395c565b60405180910390f35b34801561036157600080fd5b5061037c60048036038101906103779190613add565b610afc565b005b34801561038a57600080fd5b506103a560048036038101906103a09190613b5c565b610bfe565b6040516103b29190613997565b60405180910390f35b3480156103c757600080fd5b506103d0610c2c565b6040516103dd9190613be8565b60405180910390f35b3480156103f257600080fd5b5061040d600480360381019061040891906139e8565b610c50565b60405161041a91906138b1565b60405180910390f35b34801561042f57600080fd5b5061044a60048036038101906104459190613c03565b610cac565b005b34801561045857600080fd5b50610473600480360381019061046e91906139e8565b610cce565b6040516104809190613c52565b60405180910390f35b34801561049557600080fd5b506104b060048036038101906104ab9190613c03565b610cf2565b005b3480156104be57600080fd5b506104d960048036038101906104d49190613cd8565b610d6d565b005b3480156104e757600080fd5b5061050260048036038101906104fd9190613add565b610ee0565b005b34801561051057600080fd5b5061052b60048036038101906105269190613d93565b610f00565b005b61054760048036038101906105429190613f08565b61122c565b005b34801561055557600080fd5b5061055e61124b565b60405161056b9190613997565b60405180910390f35b34801561058057600080fd5b5061059b600480360381019061059691906139e8565b61127e565b6040516105a89190613a56565b60405180910390f35b3480156105bd57600080fd5b506105d860048036038101906105d39190613f64565b611290565b005b3480156105e657600080fd5b5061060160048036038101906105fc9190613fff565b6113b7565b60405161060e9190613c52565b60405180910390f35b34801561062357600080fd5b5061063e6004803603810190610639919061404c565b61142a565b60405161064b9190613c52565b60405180910390f35b34801561066057600080fd5b5061067b6004803603810190610676919061404c565b6114f3565b6040516106889190614185565b60405180910390f35b34801561069d57600080fd5b506106b860048036038101906106b391906141a7565b6116fc565b005b3480156106c657600080fd5b506106e160048036038101906106dc919061404c565b6117e0565b6040516106ee91906142f2565b60405180910390f35b34801561070357600080fd5b5061071e60048036038101906107199190613c03565b6118e7565b60405161072b91906138b1565b60405180910390f35b34801561074057600080fd5b50610749611960565b604051610756919061395c565b60405180910390f35b34801561076b57600080fd5b50610774611a01565b6040516107819190613997565b60405180910390f35b34801561079657600080fd5b506107b160048036038101906107ac9190614340565b611a08565b005b3480156107bf57600080fd5b506107c8611a1e565b6040516107d5919061395c565b60405180910390f35b3480156107ea57600080fd5b5061080560048036038101906108009190614380565b611a57565b005b34801561081357600080fd5b5061082e60048036038101906108299190614403565b611a7c565b60405161083b9190613c52565b60405180910390f35b34801561085057600080fd5b5061086b600480360381019061086691906139e8565b611c05565b604051610878919061395c565b60405180910390f35b34801561088d57600080fd5b506108a860048036038101906108a39190613c03565b611c6e565b005b3480156108b657600080fd5b506108d160048036038101906108cc9190613f64565b611c90565b005b3480156108df57600080fd5b506108fa60048036038101906108f59190613d93565b611db7565b60405161090791906138b1565b60405180910390f35b34801561091c57600080fd5b50610925611e59565b6040516109329190613997565b60405180910390f35b600061094682611e7d565b9050919050565b60606000610959611ef7565b905080600001805461096a906144c7565b80601f0160208091040260200160405190810160405280929190818152602001828054610996906144c7565b80156109e35780601f106109b8576101008083540402835291602001916109e3565b820191906000526020600020905b8154815290600101906020018083116109c657829003601f168201915b505050505091505090565b7f68e79a7bf1e0bc45d0a330c573bc367f9cf464fd326078812f301165fbda4ef181565b6000610a1d82611f1f565b50610a2782611fa7565b9050919050565b610a408282610a3b611ff2565b611ffa565b5050565b6060610a50823361200c565b610a5957600080fd5b600460008381526020019081526020016000208054610a77906144c7565b80601f0160208091040260200160405190810160405280929190818152602001828054610aa3906144c7565b8015610af05780601f10610ac557610100808354040283529160200191610af0565b820191906000526020600020905b815481529060010190602001808311610ad357829003601f168201915b50505050509050919050565b600073ffffffffffffffffffffffffffffffffffffffff168273ffffffffffffffffffffffffffffffffffffffff1603610b6e5760006040517f64a0ae92000000000000000000000000000000000000000000000000000000008152600401610b659190613a56565b60405180910390fd5b6000610b828383610b7d611ff2565b6120b9565b90508373ffffffffffffffffffffffffffffffffffffffff168173ffffffffffffffffffffffffffffffffffffffff1614610bf8578382826040517f64283d7b000000000000000000000000000000000000000000000000000000008152600401610bef939291906144f8565b60405180910390fd5b50505050565b600080610c096122e6565b905080600001600084815260200190815260200160002060010154915050919050565b60008054906101000a900473ffffffffffffffffffffffffffffffffffffffff1681565b600080600090505b600780549050811015610ca1578260078281548110610c7a57610c7961452f565b5b906000526020600020015403610c94576001915050610ca7565b8080600101915050610c58565b50600090505b919050565b610cb582610bfe565b610cbe8161230e565b610cc88383612322565b50505050565b60078181548110610cde57600080fd5b906000526020600020016000915090505481565b610cfa611ff2565b73ffffffffffffffffffffffffffffffffffffffff168173ffffffffffffffffffffffffffffffffffffffff1614610d5e576040517f6697b23200000000000000000000000000000000000000000000000000000000815260040160405180910390fd5b610d688282612423565b505050565b60008060009054906101000a900473ffffffffffffffffffffffffffffffffffffffff1673ffffffffffffffffffffffffffffffffffffffff166343753b4d8a8a8a8a6040518563ffffffff1660e01b8152600401610dcf9493929190614646565b602060405180830381865afa158015610dec573d6000803e3d6000fd5b505050506040513d601f19601f82011682018060405250810190610e1091906146a2565b905080610e52576040517f08c379a0000000000000000000000000000000000000000000000000000000008152600401610e499061471b565b60405180910390fd5b3373ffffffffffffffffffffffffffffffffffffffff168573ffffffffffffffffffffffffffffffffffffffff167f890ea6143c88ed2b637295bcc62f6afd8bb2caf57cac2470109859d13801d46c8686868b600060018110610eb857610eb761452f565b5b6020020135604051610ecd949392919061473b565b60405180910390a3505050505050505050565b610efb83838360405180602001604052806000815250611a57565b505050565b6000610f0a612525565b905060008160000160089054906101000a900460ff1615905060008260000160009054906101000a900467ffffffffffffffff1690506000808267ffffffffffffffff16148015610f585750825b9050600060018367ffffffffffffffff16148015610f8d575060003073ffffffffffffffffffffffffffffffffffffffff163b145b905081158015610f9b575080155b15610fd2576040517ff92ee8a900000000000000000000000000000000000000000000000000000000815260040160405180910390fd5b60018560000160006101000a81548167ffffffffffffffff021916908367ffffffffffffffff16021790555083156110225760018560000160086101000a81548160ff0219169083151502179055505b6110966040518060400160405280600c81526020017f4865616c74685265636f726400000000000000000000000000000000000000008152506040518060400160405280600481526020017f4852454300000000000000000000000000000000000000000000000000000000815250612539565b61109e61254f565b6110a6612559565b6110b36000801b88612322565b506110de7f189ab7a9244df0848122154315af71fe140f3db0fe014031783b0946b8c9d2e388612322565b50856000806101000a81548173ffffffffffffffffffffffffffffffffffffffff021916908373ffffffffffffffffffffffffffffffffffffffff1602179055506007600e908060018154018082558091505060019003906000526020600020016000909190919091505560076010908060018154018082558091505060019003906000526020600020016000909190919091505560076012908060018154018082558091505060019003906000526020600020016000909190919091505560076015908060018154018082558091505060019003906000526020600020016000909190919091505583156112235760008560000160086101000a81548160ff0219169083151502179055507fc7f505b2f371ae2175ee4913f4499e1f2633a7b5936321eed1cdaeb6115181d2600160405161121a91906147cf565b60405180910390a15b50505050505050565b611234612563565b61123d82612649565b6112478282612677565b5050565b6000611255612796565b7f360894a13ba1a3210667c828492db98dca3e2076cc3735a920a3ca505d382bbc60001b905090565b600061128982611f1f565b9050919050565b3373ffffffffffffffffffffffffffffffffffffffff166112b08361127e565b73ffffffffffffffffffffffffffffffffffffffff1614611306576040517f08c379a00000000000000000000000000000000000000000000000000000000081526004016112fd90614836565b60405180910390fd5b60016006600084815260200190815260200160002060008373ffffffffffffffffffffffffffffffffffffffff1673ffffffffffffffffffffffffffffffffffffffff16815260200190815260200160002060006101000a81548160ff0219169083151502179055508073ffffffffffffffffffffffffffffffffffffffff16827f3c3a9147a1fc73dd51a32f4d10c43d457e8cb826eb6f35cac6349eb965ba82b460405160405180910390a35050565b600080600384846040516113cc929190614886565b908152602001604051809103902054905060008103611420576040517f08c379a0000000000000000000000000000000000000000000000000000000008152600401611417906148eb565b60405180910390fd5b8091505092915050565b600080611435611ef7565b9050600073ffffffffffffffffffffffffffffffffffffffff168373ffffffffffffffffffffffffffffffffffffffff16036114a95760006040517f89c62b640000000000000000000000000000000000000000000000000000000081526004016114a09190613a56565b60405180910390fd5b8060030160008473ffffffffffffffffffffffffffffffffffffffff1673ffffffffffffffffffffffffffffffffffffffff16815260200190815260200160002054915050919050565b6060818073ffffffffffffffffffffffffffffffffffffffff163373ffffffffffffffffffffffffffffffffffffffff1614611564576040517f08c379a000000000000000000000000000000000000000000000000000000000815260040161155b90614836565b60405180910390fd5b6000600260008573ffffffffffffffffffffffffffffffffffffffff1673ffffffffffffffffffffffffffffffffffffffff16815260200190815260200160002090506000818054905067ffffffffffffffff8111156115c7576115c6613ddd565b5b6040519080825280602002602001820160405280156115fa57816020015b60608152602001906001900390816115e55790505b50905060005b82805490508110156116f057600460008483815481106116235761162261452f565b5b906000526020600020015481526020019081526020016000208054611647906144c7565b80601f0160208091040260200160405190810160405280929190818152602001828054611673906144c7565b80156116c05780601f10611695576101008083540402835291602001916116c0565b820191906000526020600020905b8154815290600101906020018083116116a357829003601f168201915b50505050508282815181106116d8576116d761452f565b5b60200260200101819052508080600101915050611600565b50809350505050919050565b7f68e79a7bf1e0bc45d0a330c573bc367f9cf464fd326078812f301165fbda4ef16117268161230e565b61172f85610c50565b61176e576040517f08c379a000000000000000000000000000000000000000000000000000000000815260040161176590614957565b60405180910390fd5b8573ffffffffffffffffffffffffffffffffffffffff168773ffffffffffffffffffffffffffffffffffffffff167f9971f91b1932a84380cd8eb9e910ee3b8de20122d82bf8010f9edcccabf2e3af8686866040516117cf93929190614977565b60405180910390a350505050505050565b6060818073ffffffffffffffffffffffffffffffffffffffff163373ffffffffffffffffffffffffffffffffffffffff1614611851576040517f08c379a000000000000000000000000000000000000000000000000000000000815260040161184890614836565b60405180910390fd5b600260008473ffffffffffffffffffffffffffffffffffffffff1673ffffffffffffffffffffffffffffffffffffffff1681526020019081526020016000208054806020026020016040519081016040528092919081815260200182805480156118da57602002820191906000526020600020905b8154815260200190600101908083116118c6575b5050505050915050919050565b6000806118f26122e6565b905080600001600085815260200190815260200160002060000160008473ffffffffffffffffffffffffffffffffffffffff1673ffffffffffffffffffffffffffffffffffffffff16815260200190815260200160002060009054906101000a900460ff1691505092915050565b6060600061196c611ef7565b905080600101805461197d906144c7565b80601f01602080910402602001604051908101604052809291908181526020018280546119a9906144c7565b80156119f65780601f106119cb576101008083540402835291602001916119f6565b820191906000526020600020905b8154815290600101906020018083116119d957829003601f168201915b505050505091505090565b6000801b81565b611a1a611a13611ff2565b838361281d565b5050565b6040518060400160405280600581526020017f352e302e3000000000000000000000000000000000000000000000000000000081525081565b611a62848484610afc565b611a76611a6d611ff2565b8585858561299b565b50505050565b60007f68e79a7bf1e0bc45d0a330c573bc367f9cf464fd326078812f301165fbda4ef1611aa88161230e565b60016000815480929190611abb906149dd565b919050555060006001549050611ad18882612b4c565b8686600460008481526020019081526020016000209182611af3929190614bd2565b508484600560008481526020019081526020016000209182611b16929190614bd2565b50600260008973ffffffffffffffffffffffffffffffffffffffff1673ffffffffffffffffffffffffffffffffffffffff1681526020019081526020016000208190806001815401808255809150506001900390600052602060002001600090919091909150558060038888604051611b90929190614886565b9081526020016040518091039020819055508773ffffffffffffffffffffffffffffffffffffffff16817ff6096f9085720441c5114bb8042ba14656bb822ab144fc65f11c21c3ac77af4a89898989604051611bef9493929190614ccf565b60405180910390a3809250505095945050505050565b6060611c1082611f1f565b506000611c1b612b6a565b90506000815111611c3b5760405180602001604052806000815250611c66565b80611c4584612b81565b604051602001611c56929190614d3b565b6040516020818303038152906040525b915050919050565b611c7782610bfe565b611c808161230e565b611c8a8383612423565b50505050565b3373ffffffffffffffffffffffffffffffffffffffff16611cb08361127e565b73ffffffffffffffffffffffffffffffffffffffff1614611d06576040517f08c379a0000000000000000000000000000000000000000000000000000000008152600401611cfd90614836565b60405180910390fd5b60006006600084815260200190815260200160002060008373ffffffffffffffffffffffffffffffffffffffff1673ffffffffffffffffffffffffffffffffffffffff16815260200190815260200160002060006101000a81548160ff0219169083151502179055508073ffffffffffffffffffffffffffffffffffffffff16827f125883b94692baebecad9f111ed97ffa626523bbbadc6b0ef85ee1b56b9e52d560405160405180910390a35050565b600080611dc2611ef7565b90508060050160008573ffffffffffffffffffffffffffffffffffffffff1673ffffffffffffffffffffffffffffffffffffffff16815260200190815260200160002060008473ffffffffffffffffffffffffffffffffffffffff1673ffffffffffffffffffffffffffffffffffffffff16815260200190815260200160002060009054906101000a900460ff1691505092915050565b7f189ab7a9244df0848122154315af71fe140f3db0fe014031783b0946b8c9d2e381565b60007f7965db0b000000000000000000000000000000000000000000000000000000007bffffffffffffffffffffffffffffffffffffffffffffffffffffffff1916827bffffffffffffffffffffffffffffffffffffffffffffffffffffffff19161480611ef05750611eef82612c4f565b5b9050919050565b60007f80bb2b638cc20bc4d0a60d66940f3ab4a00c1d7b313497ca82fb0b4ab0079300905090565b600080611f2b83612d31565b9050600073ffffffffffffffffffffffffffffffffffffffff168173ffffffffffffffffffffffffffffffffffffffff1603611f9e57826040517f7e273289000000000000000000000000000000000000000000000000000000008152600401611f959190613c52565b60405180910390fd5b80915050919050565b600080611fb2611ef7565b905080600401600084815260200190815260200160002060009054906101000a900473ffffffffffffffffffffffffffffffffffffffff16915050919050565b600033905090565b6120078383836001612d7c565b505050565b60008173ffffffffffffffffffffffffffffffffffffffff1661202e8461127e565b73ffffffffffffffffffffffffffffffffffffffff160361205257600190506120b3565b6006600084815260200190815260200160002060008373ffffffffffffffffffffffffffffffffffffffff1673ffffffffffffffffffffffffffffffffffffffff16815260200190815260200160002060009054906101000a900460ff1690505b92915050565b6000806120c4611ef7565b905060006120d185612d31565b9050600073ffffffffffffffffffffffffffffffffffffffff168473ffffffffffffffffffffffffffffffffffffffff161461211357612112818587612f50565b5b600073ffffffffffffffffffffffffffffffffffffffff168173ffffffffffffffffffffffffffffffffffffffff16146121a657612155600086600080612d7c565b60018260030160008373ffffffffffffffffffffffffffffffffffffffff1673ffffffffffffffffffffffffffffffffffffffff168152602001908152602001600020600082825403925050819055505b600073ffffffffffffffffffffffffffffffffffffffff168673ffffffffffffffffffffffffffffffffffffffff161461222b5760018260030160008873ffffffffffffffffffffffffffffffffffffffff1673ffffffffffffffffffffffffffffffffffffffff168152602001908152602001600020600082825401925050819055505b8582600201600087815260200190815260200160002060006101000a81548173ffffffffffffffffffffffffffffffffffffffff021916908373ffffffffffffffffffffffffffffffffffffffff160217905550848673ffffffffffffffffffffffffffffffffffffffff168273ffffffffffffffffffffffffffffffffffffffff167fddf252ad1be2c89b69c2b068fc378daa952ba7f163c4a11628f55a4df523b3ef60405160405180910390a480925050509392505050565b60007f02dd7bc7dec4dceedda775e58dd541e08a116c6c53815c0bd028192f7b626800905090565b61231f8161231a611ff2565b613014565b50565b60008061232d6122e6565b905061233984846118e7565b61241757600181600001600086815260200190815260200160002060000160008573ffffffffffffffffffffffffffffffffffffffff1673ffffffffffffffffffffffffffffffffffffffff16815260200190815260200160002060006101000a81548160ff0219169083151502179055506123b3611ff2565b73ffffffffffffffffffffffffffffffffffffffff168373ffffffffffffffffffffffffffffffffffffffff16857f2f8788117e7eff1d82e926ec794901d17c78024a50270940304540a733656f0d60405160405180910390a4600191505061241d565b60009150505b92915050565b60008061242e6122e6565b905061243a84846118e7565b1561251957600081600001600086815260200190815260200160002060000160008573ffffffffffffffffffffffffffffffffffffffff1673ffffffffffffffffffffffffffffffffffffffff16815260200190815260200160002060006101000a81548160ff0219169083151502179055506124b5611ff2565b73ffffffffffffffffffffffffffffffffffffffff168373ffffffffffffffffffffffffffffffffffffffff16857ff6391f5c32d9c69d2a47ea670b442974b53935d1edc7fd64eb21e047a839171b60405160405180910390a4600191505061251f565b60009150505b92915050565b600080612530613065565b90508091505090565b612541613090565b61254b82826130d0565b5050565b612557613090565b565b612561613090565b565b7f000000000000000000000000000000000000000000000000000000000000000073ffffffffffffffffffffffffffffffffffffffff163073ffffffffffffffffffffffffffffffffffffffff16148061261057507f000000000000000000000000000000000000000000000000000000000000000073ffffffffffffffffffffffffffffffffffffffff166125f761310d565b73ffffffffffffffffffffffffffffffffffffffff1614155b15612647576040517fe07c8dba00000000000000000000000000000000000000000000000000000000815260040160405180910390fd5b565b7f189ab7a9244df0848122154315af71fe140f3db0fe014031783b0946b8c9d2e36126738161230e565b5050565b8173ffffffffffffffffffffffffffffffffffffffff166352d1902d6040518163ffffffff1660e01b8152600401602060405180830381865afa9250505080156126df57506040513d601f19601f820116820180604052508101906126dc9190614d74565b60015b61272057816040517f4c9c8ce30000000000000000000000000000000000000000000000000000000081526004016127179190613a56565b60405180910390fd5b7f360894a13ba1a3210667c828492db98dca3e2076cc3735a920a3ca505d382bbc60001b811461278757806040517faa1d49a400000000000000000000000000000000000000000000000000000000815260040161277e9190613997565b60405180910390fd5b6127918383613164565b505050565b7f000000000000000000000000000000000000000000000000000000000000000073ffffffffffffffffffffffffffffffffffffffff163073ffffffffffffffffffffffffffffffffffffffff161461281b576040517fe07c8dba00000000000000000000000000000000000000000000000000000000815260040160405180910390fd5b565b6000612827611ef7565b9050600073ffffffffffffffffffffffffffffffffffffffff168373ffffffffffffffffffffffffffffffffffffffff160361289a57826040517f5b08ba180000000000000000000000000000000000000000000000000000000081526004016128919190613a56565b60405180910390fd5b818160050160008673ffffffffffffffffffffffffffffffffffffffff1673ffffffffffffffffffffffffffffffffffffffff16815260200190815260200160002060008573ffffffffffffffffffffffffffffffffffffffff1673ffffffffffffffffffffffffffffffffffffffff16815260200190815260200160002060006101000a81548160ff0219169083151502179055508273ffffffffffffffffffffffffffffffffffffffff168473ffffffffffffffffffffffffffffffffffffffff167f17307eab39ab6107e8899845ad3d59bd9653f200f220920489ca2b5937696c318460405161298d91906138b1565b60405180910390a350505050565b60008373ffffffffffffffffffffffffffffffffffffffff163b1115612b45578273ffffffffffffffffffffffffffffffffffffffff1663150b7a02868685856040518563ffffffff1660e01b81526004016129fa9493929190614df6565b6020604051808303816000875af1925050508015612a3657506040513d601f19601f82011682018060405250810190612a339190614e57565b60015b612aba573d8060008114612a66576040519150601f19603f3d011682016040523d82523d6000602084013e612a6b565b606091505b506000815103612ab257836040517f64a0ae92000000000000000000000000000000000000000000000000000000008152600401612aa99190613a56565b60405180910390fd5b805160208201fd5b63150b7a0260e01b7bffffffffffffffffffffffffffffffffffffffffffffffffffffffff1916817bffffffffffffffffffffffffffffffffffffffffffffffffffffffff191614612b4357836040517f64a0ae92000000000000000000000000000000000000000000000000000000008152600401612b3a9190613a56565b60405180910390fd5b505b5050505050565b612b668282604051806020016040528060008152506131d7565b5050565b606060405180602001604052806000815250905090565b606060006001612b90846131fb565b01905060008167ffffffffffffffff811115612baf57612bae613ddd565b5b6040519080825280601f01601f191660200182016040528015612be15781602001600182028036833780820191505090505b509050600082602083010190505b600115612c44578080600190039150507f3031323334353637383961626364656600000000000000000000000000000000600a86061a8153600a8581612c3857612c37614e84565b5b04945060008503612bef575b819350505050919050565b60007f80ac58cd000000000000000000000000000000000000000000000000000000007bffffffffffffffffffffffffffffffffffffffffffffffffffffffff1916827bffffffffffffffffffffffffffffffffffffffffffffffffffffffff19161480612d1a57507f5b5e139f000000000000000000000000000000000000000000000000000000007bffffffffffffffffffffffffffffffffffffffffffffffffffffffff1916827bffffffffffffffffffffffffffffffffffffffffffffffffffffffff1916145b80612d2a5750612d298261334e565b5b9050919050565b600080612d3c611ef7565b905080600201600084815260200190815260200160002060009054906101000a900473ffffffffffffffffffffffffffffffffffffffff16915050919050565b6000612d86611ef7565b90508180612dc15750600073ffffffffffffffffffffffffffffffffffffffff168373ffffffffffffffffffffffffffffffffffffffff1614155b15612ef5576000612dd185611f1f565b9050600073ffffffffffffffffffffffffffffffffffffffff168473ffffffffffffffffffffffffffffffffffffffff1614158015612e3c57508373ffffffffffffffffffffffffffffffffffffffff168173ffffffffffffffffffffffffffffffffffffffff1614155b8015612e4f5750612e4d8185611db7565b155b15612e9157836040517fa9fbf51f000000000000000000000000000000000000000000000000000000008152600401612e889190613a56565b60405180910390fd5b8215612ef357848673ffffffffffffffffffffffffffffffffffffffff168273ffffffffffffffffffffffffffffffffffffffff167f8c5be1e5ebec7d5bd14f71427d1e84f3dd0314c0f7b2291e5b200ac8c7c3b92560405160405180910390a45b505b8481600401600086815260200190815260200160002060006101000a81548173ffffffffffffffffffffffffffffffffffffffff021916908373ffffffffffffffffffffffffffffffffffffffff1602179055505050505050565b612f5b8383836133b8565b61300f57600073ffffffffffffffffffffffffffffffffffffffff168373ffffffffffffffffffffffffffffffffffffffff1603612fd057806040517f7e273289000000000000000000000000000000000000000000000000000000008152600401612fc79190613c52565b60405180910390fd5b81816040517f177e802f000000000000000000000000000000000000000000000000000000008152600401613006929190614eb3565b60405180910390fd5b505050565b61301e82826118e7565b6130615780826040517fe2517d3f000000000000000000000000000000000000000000000000000000008152600401613058929190614edc565b60405180910390fd5b5050565b60007ff0c57e16840df040f15088dc2f81fe391c3923bec73e23a9662efc9c229c6a0060001b905090565b613098613479565b6130ce576040517fd7e6bcf800000000000000000000000000000000000000000000000000000000815260040160405180910390fd5b565b6130d8613090565b60006130e2611ef7565b9050828160000190816130f59190614f05565b50818160010190816131079190614f05565b50505050565b600061313b7f360894a13ba1a3210667c828492db98dca3e2076cc3735a920a3ca505d382bbc60001b613499565b60000160009054906101000a900473ffffffffffffffffffffffffffffffffffffffff16905090565b61316d826134a3565b8173ffffffffffffffffffffffffffffffffffffffff167fbc7cd75a20ee27fd9adebab32041f755214dbc6bffa90cc0225b39da2e5c2d3b60405160405180910390a26000815111156131ca576131c48282613570565b506131d3565b6131d26135f4565b5b5050565b6131e18383613631565b6131f66131ec611ff2565b600085858561299b565b505050565b600080600090507a184f03e93ff9f4daa797ed6e38ed64bf6a1f0100000000000000008310613259577a184f03e93ff9f4daa797ed6e38ed64bf6a1f010000000000000000838161324f5761324e614e84565b5b0492506040810190505b6d04ee2d6d415b85acef81000000008310613296576d04ee2d6d415b85acef8100000000838161328c5761328b614e84565b5b0492506020810190505b662386f26fc1000083106132c557662386f26fc1000083816132bb576132ba614e84565b5b0492506010810190505b6305f5e10083106132ee576305f5e10083816132e4576132e3614e84565b5b0492506008810190505b612710831061331357612710838161330957613308614e84565b5b0492506004810190505b60648310613336576064838161332c5761332b614e84565b5b0492506002810190505b600a8310613345576001810190505b80915050919050565b60007f01ffc9a7000000000000000000000000000000000000000000000000000000007bffffffffffffffffffffffffffffffffffffffffffffffffffffffff1916827bffffffffffffffffffffffffffffffffffffffffffffffffffffffff1916149050919050565b60008073ffffffffffffffffffffffffffffffffffffffff168373ffffffffffffffffffffffffffffffffffffffff161415801561347057508273ffffffffffffffffffffffffffffffffffffffff168473ffffffffffffffffffffffffffffffffffffffff16148061343157506134308484611db7565b5b8061346f57508273ffffffffffffffffffffffffffffffffffffffff1661345783611fa7565b73ffffffffffffffffffffffffffffffffffffffff16145b5b90509392505050565b6000613483612525565b60000160089054906101000a900460ff16905090565b6000819050919050565b60008173ffffffffffffffffffffffffffffffffffffffff163b036134ff57806040517f4c9c8ce30000000000000000000000000000000000000000000000000000000081526004016134f69190613a56565b60405180910390fd5b8061352c7f360894a13ba1a3210667c828492db98dca3e2076cc3735a920a3ca505d382bbc60001b613499565b60000160006101000a81548173ffffffffffffffffffffffffffffffffffffffff021916908373ffffffffffffffffffffffffffffffffffffffff16021790555050565b60606000808473ffffffffffffffffffffffffffffffffffffffff168460405161359a9190615013565b600060405180830381855af49150503d80600081146135d5576040519150601f19603f3d011682016040523d82523d6000602084013e6135da565b606091505b50915091506135ea85838361372a565b9250505092915050565b600034111561362f576040517fb398979f00000000000000000000000000000000000000000000000000000000815260040160405180910390fd5b565b600073ffffffffffffffffffffffffffffffffffffffff168273ffffffffffffffffffffffffffffffffffffffff16036136a35760006040517f64a0ae9200000000000000000000000000000000000000000000000000000000815260040161369a9190613a56565b60405180910390fd5b60006136b1838360006120b9565b9050600073ffffffffffffffffffffffffffffffffffffffff168173ffffffffffffffffffffffffffffffffffffffff16146137255760006040517f73c6ac6e00000000000000000000000000000000000000000000000000000000815260040161371c9190613a56565b60405180910390fd5b505050565b60608261373f5761373a826137b9565b6137b1565b60008251148015613767575060008473ffffffffffffffffffffffffffffffffffffffff163b145b156137a957836040517f9996b3150000000000000000000000000000000000000000000000000000000081526004016137a09190613a56565b60405180910390fd5b8190506137b2565b5b9392505050565b6000815111156137cb57805160208201fd5b6040517fd6bda27500000000000000000000000000000000000000000000000000000000815260040160405180910390fd5b6000604051905090565b600080fd5b600080fd5b60007fffffffff0000000000000000000000000000000000000000000000000000000082169050919050565b61384681613811565b811461385157600080fd5b50565b6000813590506138638161383d565b92915050565b60006020828403121561387f5761387e613807565b5b600061388d84828501613854565b91505092915050565b60008115159050919050565b6138ab81613896565b82525050565b60006020820190506138c660008301846138a2565b92915050565b600081519050919050565b600082825260208201905092915050565b60005b838110156139065780820151818401526020810190506138eb565b60008484015250505050565b6000601f19601f8301169050919050565b600061392e826138cc565b61393881856138d7565b93506139488185602086016138e8565b61395181613912565b840191505092915050565b600060208201905081810360008301526139768184613923565b905092915050565b6000819050919050565b6139918161397e565b82525050565b60006020820190506139ac6000830184613988565b92915050565b6000819050919050565b6139c5816139b2565b81146139d057600080fd5b50565b6000813590506139e2816139bc565b92915050565b6000602082840312156139fe576139fd613807565b5b6000613a0c848285016139d3565b91505092915050565b600073ffffffffffffffffffffffffffffffffffffffff82169050919050565b6000613a4082613a15565b9050919050565b613a5081613a35565b82525050565b6000602082019050613a6b6000830184613a47565b92915050565b613a7a81613a35565b8114613a8557600080fd5b50565b600081359050613a9781613a71565b92915050565b60008060408385031215613ab457613ab3613807565b5b6000613ac285828601613a88565b9250506020613ad3858286016139d3565b9150509250929050565b600080600060608486031215613af657613af5613807565b5b6000613b0486828701613a88565b9350506020613b1586828701613a88565b9250506040613b26868287016139d3565b9150509250925092565b613b398161397e565b8114613b4457600080fd5b50565b600081359050613b5681613b30565b92915050565b600060208284031215613b7257613b71613807565b5b6000613b8084828501613b47565b91505092915050565b6000819050919050565b6000613bae613ba9613ba484613a15565b613b89565b613a15565b9050919050565b6000613bc082613b93565b9050919050565b6000613bd282613bb5565b9050919050565b613be281613bc7565b82525050565b6000602082019050613bfd6000830184613bd9565b92915050565b60008060408385031215613c1a57613c19613807565b5b6000613c2885828601613b47565b9250506020613c3985828601613a88565b9150509250929050565b613c4c816139b2565b82525050565b6000602082019050613c676000830184613c43565b92915050565b600080fd5b600081905082602060020282011115613c8e57613c8d613c6d565b5b92915050565b600081905082604060020282011115613cb057613caf613c6d565b5b92915050565b600081905082602060010282011115613cd257613cd1613c6d565b5b92915050565b6000806000806000806000806101a0898b031215613cf957613cf8613807565b5b6000613d078b828c01613c72565b9850506040613d188b828c01613c94565b97505060c0613d298b828c01613c72565b965050610100613d3b8b828c01613cb6565b955050610120613d4d8b828c01613a88565b945050610140613d5f8b828c016139d3565b935050610160613d718b828c016139d3565b925050610180613d838b828c016139d3565b9150509295985092959890939650565b60008060408385031215613daa57613da9613807565b5b6000613db885828601613a88565b9250506020613dc985828601613a88565b9150509250929050565b600080fd5b600080fd5b7f4e487b7100000000000000000000000000000000000000000000000000000000600052604160045260246000fd5b613e1582613912565b810181811067ffffffffffffffff82111715613e3457613e33613ddd565b5b80604052505050565b6000613e476137fd565b9050613e538282613e0c565b919050565b600067ffffffffffffffff821115613e7357613e72613ddd565b5b613e7c82613912565b9050602081019050919050565b82818337600083830152505050565b6000613eab613ea684613e58565b613e3d565b905082815260208101848484011115613ec757613ec6613dd8565b5b613ed2848285613e89565b509392505050565b600082601f830112613eef57613eee613dd3565b5b8135613eff848260208601613e98565b91505092915050565b60008060408385031215613f1f57613f1e613807565b5b6000613f2d85828601613a88565b925050602083013567ffffffffffffffff811115613f4e57613f4d61380c565b5b613f5a85828601613eda565b9150509250929050565b60008060408385031215613f7b57613f7a613807565b5b6000613f89858286016139d3565b9250506020613f9a85828601613a88565b9150509250929050565b600080fd5b60008083601f840112613fbf57613fbe613dd3565b5b8235905067ffffffffffffffff811115613fdc57613fdb613fa4565b5b602083019150836001820283011115613ff857613ff7613c6d565b5b9250929050565b6000806020838503121561401657614015613807565b5b600083013567ffffffffffffffff8111156140345761403361380c565b5b61404085828601613fa9565b92509250509250929050565b60006020828403121561406257614061613807565b5b600061407084828501613a88565b91505092915050565b600081519050919050565b600082825260208201905092915050565b6000819050602082019050919050565b600082825260208201905092915050565b60006140c1826138cc565b6140cb81856140a5565b93506140db8185602086016138e8565b6140e481613912565b840191505092915050565b60006140fb83836140b6565b905092915050565b6000602082019050919050565b600061411b82614079565b6141258185614084565b93508360208202850161413785614095565b8060005b85811015614173578484038952815161415485826140ef565b945061415f83614103565b925060208a0199505060018101905061413b565b50829750879550505050505092915050565b6000602082019050818103600083015261419f8184614110565b905092915050565b60008060008060008060c087890312156141c4576141c3613807565b5b60006141d289828a01613a88565b96505060206141e389828a01613a88565b95505060406141f489828a016139d3565b945050606061420589828a016139d3565b935050608061421689828a016139d3565b92505060a061422789828a016139d3565b9150509295509295509295565b600081519050919050565b600082825260208201905092915050565b6000819050602082019050919050565b614269816139b2565b82525050565b600061427b8383614260565b60208301905092915050565b6000602082019050919050565b600061429f82614234565b6142a9818561423f565b93506142b483614250565b8060005b838110156142e55781516142cc888261426f565b97506142d783614287565b9250506001810190506142b8565b5085935050505092915050565b6000602082019050818103600083015261430c8184614294565b905092915050565b61431d81613896565b811461432857600080fd5b50565b60008135905061433a81614314565b92915050565b6000806040838503121561435757614356613807565b5b600061436585828601613a88565b92505060206143768582860161432b565b9150509250929050565b6000806000806080858703121561439a57614399613807565b5b60006143a887828801613a88565b94505060206143b987828801613a88565b93505060406143ca878288016139d3565b925050606085013567ffffffffffffffff8111156143eb576143ea61380c565b5b6143f787828801613eda565b91505092959194509250565b60008060008060006060868803121561441f5761441e613807565b5b600061442d88828901613a88565b955050602086013567ffffffffffffffff81111561444e5761444d61380c565b5b61445a88828901613fa9565b9450945050604086013567ffffffffffffffff81111561447d5761447c61380c565b5b61448988828901613fa9565b92509250509295509295909350565b7f4e487b7100000000000000000000000000000000000000000000000000000000600052602260045260246000fd5b600060028204905060018216806144df57607f821691505b6020821081036144f2576144f1614498565b5b50919050565b600060608201905061450d6000830186613a47565b61451a6020830185613c43565b6145276040830184613a47565b949350505050565b7f4e487b7100000000000000000000000000000000000000000000000000000000600052603260045260246000fd5b82818337505050565b6145736040838361455e565b5050565b600060029050919050565b600081905092915050565b6000819050919050565b6145a36040838361455e565b5050565b60006145b38383614597565b60408301905092915050565b600082905092915050565b6000604082019050919050565b6145e081614577565b6145ea8184614582565b92506145f58261458d565b8060005b8381101561462e5761460b82846145bf565b61461587826145a7565b9650614620836145ca565b9250506001810190506145f9565b505050505050565b6146426020838361455e565b5050565b60006101208201905061465c6000830187614567565b61466960408301866145d7565b61467660c0830185614567565b614684610100830184614636565b95945050505050565b60008151905061469c81614314565b92915050565b6000602082840312156146b8576146b7613807565b5b60006146c68482850161468d565b91505092915050565b7f496e76616c69642070726f6f66206f72207075626c696320696e707574730000600082015250565b6000614705601e836138d7565b9150614710826146cf565b602082019050919050565b60006020820190508181036000830152614734816146f8565b9050919050565b60006080820190506147506000830187613c43565b61475d6020830186613c43565b61476a6040830185613c43565b6147776060830184613c43565b95945050505050565b6000819050919050565b600067ffffffffffffffff82169050919050565b60006147b96147b46147af84614780565b613b89565b61478a565b9050919050565b6147c98161479e565b82525050565b60006020820190506147e460008301846147c0565b92915050565b7f4f6e6c79206f776e657200000000000000000000000000000000000000000000600082015250565b6000614820600a836138d7565b915061482b826147ea565b602082019050919050565b6000602082019050818103600083015261484f81614813565b9050919050565b600081905092915050565b600061486d8385614856565b935061487a838584613e89565b82840190509392505050565b6000614893828486614861565b91508190509392505050565b7f434944206e6f6e2074726f7661746f0000000000000000000000000000000000600082015250565b60006148d5600f836138d7565b91506148e08261489f565b602082019050919050565b60006020820190508181036000830152614904816148c8565b9050919050565b7f4c696d697465206469206574c3a0206e6f6e20636f6e73656e7469746f000000600082015250565b6000614941601d836138d7565b915061494c8261490b565b602082019050919050565b6000602082019050818103600083015261497081614934565b9050919050565b600060608201905061498c6000830186613c43565b6149996020830185613c43565b6149a66040830184613c43565b949350505050565b7f4e487b7100000000000000000000000000000000000000000000000000000000600052601160045260246000fd5b60006149e8826139b2565b91507fffffffffffffffffffffffffffffffffffffffffffffffffffffffffffffffff8203614a1a57614a196149ae565b5b600182019050919050565b600082905092915050565b60008190508160005260206000209050919050565b60006020601f8301049050919050565b600082821b905092915050565b600060088302614a927fffffffffffffffffffffffffffffffffffffffffffffffffffffffffffffffff82614a55565b614a9c8683614a55565b95508019841693508086168417925050509392505050565b6000614acf614aca614ac5846139b2565b613b89565b6139b2565b9050919050565b6000819050919050565b614ae983614ab4565b614afd614af582614ad6565b848454614a62565b825550505050565b600090565b614b12614b05565b614b1d818484614ae0565b505050565b5b81811015614b4157614b36600082614b0a565b600181019050614b23565b5050565b601f821115614b8657614b5781614a30565b614b6084614a45565b81016020851015614b6f578190505b614b83614b7b85614a45565b830182614b22565b50505b505050565b600082821c905092915050565b6000614ba960001984600802614b8b565b1980831691505092915050565b6000614bc28383614b98565b9150826002028217905092915050565b614bdc8383614a25565b67ffffffffffffffff811115614bf557614bf4613ddd565b5b614bff82546144c7565b614c0a828285614b45565b6000601f831160018114614c395760008415614c27578287013590505b614c318582614bb6565b865550614c99565b601f198416614c4786614a30565b60005b82811015614c6f57848901358255600182019150602085019450602081019050614c4a565b86831015614c8c5784890135614c88601f891682614b98565b8355505b6001600288020188555050505b50505050505050565b6000614cae83856138d7565b9350614cbb838584613e89565b614cc483613912565b840190509392505050565b60006040820190508181036000830152614cea818688614ca2565b90508181036020830152614cff818486614ca2565b905095945050505050565b6000614d15826138cc565b614d1f8185614856565b9350614d2f8185602086016138e8565b80840191505092915050565b6000614d478285614d0a565b9150614d538284614d0a565b91508190509392505050565b600081519050614d6e81613b30565b92915050565b600060208284031215614d8a57614d89613807565b5b6000614d9884828501614d5f565b91505092915050565b600081519050919050565b600082825260208201905092915050565b6000614dc882614da1565b614dd28185614dac565b9350614de28185602086016138e8565b614deb81613912565b840191505092915050565b6000608082019050614e0b6000830187613a47565b614e186020830186613a47565b614e256040830185613c43565b8181036060830152614e378184614dbd565b905095945050505050565b600081519050614e518161383d565b92915050565b600060208284031215614e6d57614e6c613807565b5b6000614e7b84828501614e42565b91505092915050565b7f4e487b7100000000000000000000000000000000000000000000000000000000600052601260045260246000fd5b6000604082019050614ec86000830185613a47565b614ed56020830184613c43565b9392505050565b6000604082019050614ef16000830185613a47565b614efe6020830184613988565b9392505050565b614f0e826138cc565b67ffffffffffffffff811115614f2757614f26613ddd565b5b614f3182546144c7565b614f3c828285614b45565b600060209050601f831160018114614f6f5760008415614f5d578287015190505b614f678582614bb6565b865550614fcf565b601f198416614f7d86614a30565b60005b82811015614fa557848901518255600182019150602085019450602081019050614f80565b86831015614fc25784890151614fbe601f891682614b98565b8355505b6001600288020188555050505b505050505050565b600081905092915050565b6000614fed82614da1565b614ff78185614fd7565b93506150078185602086016138e8565b80840191505092915050565b600061501f8284614fe2565b91508190509291505056fea26469706673582212201a157a4ac5abccbedb0b8a70e839b9b983e39aba56ee735d4b46fbd251c9299964736f6c634300081c0033",
  "linkReferences": {},
  "deployedLinkReferences": {}
}